:2000000008100020C1010000311C00006F1D0000311C0000311C0000311C0000311C0000D9
:20002000311C0000311C000020250000311C0000311C000068250000311C0000311C000020
:20004000311C0000311C0000311C0000311C0000311C0000311C0000311C0000311C000038
:20006000311C0000311C0000311C0000311C0000311C0000311C0000311C0000311C000018
:20008000311C0000311C0000311C0000311C0000311C0000311C0000311C0000311C0000F8
:2000A000311C0000311C0000311C0000311C0000311C0000311C0000311C0000311C0000D8
:2000C000311C0000311C0000311C0000311C0000311C0000311C0000311C0000311C0000B8
:2000E000311C0000311C0000311C0000311C0000311C0000311C0000311C0000311C000098
:20010000311C0000311C0000311C0000311C0000311C0000311C0000311C0000311C000077
:20012000311C0000311C0000311C0000311C0000311C000010B5054C237833B9044B13B18E
:20014000044800E000BF0123237010BD18100020000000001C27000008B5034B1BB1034982
:20016000034800E000BF08BD000000001C1000201C270000064B0748DA1C121AC11E22F08E
:200180000302994288BF0022034902F09DB900BF181000201010002028270000064B07484C
:2001A000DA1C121AC11E22F00302994288BF0022002102F096B900BF341000201810002016
:2001C00008B5084B83F30A88074B084AC3E9002200F00EF800F0F2F9FFF7CCFFFFF7DEFF30
:2001E00000F06CF90800002008100020A5EDF5FE044B054A9A60D3F8882042F47002C3F857
:200200008820704700ED00E000000000F0B5421ED11C034685B019D86E460D4C04F1100738
:20022000354620686168083403C5BC422E46F7D10DF10F010F3311F8010912F8014F844231
:2002400004D19A42F7D1012005B0F0BD0020FBE70C2500002DE9F0410368044603F16043DC
:20026000B3F5803F4FF00000A0B029D8826A636816699E4224D8B3F5402F21D8656B06F19E
:200280004003AB4268D8B5F5402F65D82846FFF7BDFF002860D0284601F02BFD80B16B6994
:2002A00073B1022B0FD1AB69C4F1040119444FF0FF32204600F008FE284BC31A5842584193
:2002C00020B0BDE8F08140F2046328460493FFF79DFF08B90020F3E7284601F00AFD0028BF
:2002E000F8D00027D7F834804046FFF78FFF0028F0D0503EB045EDD8284605A901F000FD48
:200300000028E7D0BA6A059B12699A42E2D89C42E0D8B3F5402FDDD806A801F0E9FE059AA2
:200320002146121B06A801F0EDFE06A801F0ECFE059C00F057FE039000F06CFE214600904C
:20034000039B04F1200206A800F0D2FD04900498B0FA80F04009B3E70120B1E7E320BBDEF9
:2003600070B54FF0FF3290B005460C4600F0ACFD1A4B98422ED11C22002101A802F0B1F891
:20038000174B29466846043C009302F043F82146684602F03FF8684602F045F801F049FC8D
:2003A0000646B8B940F2022000F07CF91C22314609A802F096F80B4B294608A8089302F0DF
:2003C00029F808A8214602F025F808A802F02BF801F02FFC002010B070BD00BFE320BBDE8D
:2003E000010005430100064330B5044691B01C22002101A802F075F8114B2146684600938F
:2004000002F008F8684602F00EF801F012FC054698B940F2022000F045F91C22294609A8C9
:2004200002F05FF8074B08A82146089301F0F2FF08A801F0F8FF01F0FCFB002011B030BD3F
:20044000000002430000034310B58CB01C220446002105A802F045F80A4B019404930123E6
:200460000293094B01A904A8039301F0C9FF04A801F0D9FF01F0DDFBB0FA80F040090CB091
:2004800010BD00BF000008430400002038B50C46054680B179B100230B60074B036001F048
:2004A00074FF01301EBF2B6843F440432B60236843F40053236038BD1424004013B501A86D
:2004C00001F084FA9DF80530012B27D1334A936DDB0313D4536B23F4FF0323F4FE4343F417
:2004E000BC1343F4A0635363136B23F4704343F440431363136B43F4E06313639DF804308E
:2005000063B94FF000531B68254B1B68254B1B68254B1B68254B1B68254B1B68254AD2F8B2
:20052000803043F00303C2F8803001F011FC00F0ABF808B900F090F801F088FE044658B9CC
:2005400000F0A2F808B100F097F840F2012000F0D3F84FF4017018E000F096F808B900F0F0
:2005600083F800F0ABF8012802D900F075F8FEE700F0B0F8104B0193019B002B0ADC40F2C1
:2005800005439C42E5D140F2032000F0B5F8002002B010BD019B013BEDE700BF00C0004083
:2005A000004000200080002000C0002000000120004001200080004000350C0013B50124EB
:2005C0004FF040238DF806408DF80740D3F894305B0610D500F0A4F8A0F2022080B207286C
:2005E00009D804FA00F010F0C90F1EBF00238DF806308DF807304FF480435B68013308D107
:200600004FF4027000F04EF800238DF806308DF807309DF8073063B14FF48040FFF71AFE64
:200620008DF806009DF806301BB94FF4027000F039F89DF8063053B100F026F808B100F034
:200640001BF84FF48040034B986001F085FB02B010BD00BF00ED00E04CF23C32014B5A80F0
:20066000704700BF000000204AF6C032014B5A80704700BF000000204FF20F02014B5A807E
:20068000704700BF000000204AF6C030044B5B8823F00F039BB21B1A58425841704700BF12
:2006A00000000020044A08B51080FFF7EDFF10B94FF20F03538008BD0000002008B5FFF716
:2006C000E3FF18B1024B588800F00F0008BD00BF0000002008B5FFF7D7FF48B1054A5388F3
:2006E00003F00F010F2914BF013323F00F03538008BD00BF0000002008B5FFF7D3FFBFF3E5
:200700004F8F0549054BCA6802F4E0621343CB60BFF34F8F00BFFDE700ED00E00400FA056F
:200720004FF20F01084B5A888A4201D1188870473AB91B8840F20220012B18BF4FF400709E
:2007400070474FF4007070470000002030B500220C24064B04FB02F1CD58854201D15818B0
:2007600030BD01320C2AF5D10020F9E7B82500007FB50023CDE90033082315460DEB0302BD
:20078000044601F0BAFB41F203039842064626D194F8433063B10822E06C0DEB020101F09E
:2007A000B1FC08230DEB03021146A06C01F08FFC039A029B6A6094F843202B605AB9094AA1
:2007C000934208D0084A934205D00822E06C0DEB020101F097FC6B682365002363653046BF
:2007E00004B070BDF70A0AF7FC0404FC2DE9F04100254FF0FF3704468846164603F02003AB
:2008000080F842301822FF21C0E91855A0F8405080F84350A0F8445080F84650C0F8887061
:20082000683001F05EFE88222946C4E91286C4F88070C4F8847004F1900001F052FE074B01
:20084000C4F82071C4E9463584F8245116B1304601F04EFC0020BDE8F08100BF00010101C2
:200860002DE9F04FA5B09846CDE91123002304460E462E9D1393139A424501D30020D1E0FB
:2008800094F84630132BF7D8DFE813F06700B400AE00520039002D00C1013900B901390010
:2008A00073013900B901A8021803140012014F024F0216034FF00009636D0F2B00F29880CE
:2008C0000127102314AA2046CDF80490009711A901F013FB41F203030890089A9A4200F0B1
:2008E000D980089B45E04FF00109D4E91432934200F2E88084F8469041F2030339E04FF079
:200900000109D4E91417B94272D9C91BDDE91272BF1A94F840200329174440F28181032FBF
:2009200000F28181204611A901F0C6FA002320E00127636D072BDFD8082314AA2046CDE9E9
:20094000007711A901F0D9FA41F203030B900B9A9A4200F023810B9B0BE014AA204611A94A
:20096000FFF706FF41F203020590059B934208D0059B049341F20303049A9A423FF47BAF1B
:200980004FE0159A1499226500226265A24A914240F00F81022284F84620EAE7012314AA24
:2009A000009320460823019711A901F0A6FA41F203030690069A9A4201D0069BD9E7149B04
:2009C00003F07F43B3F1407F05D0132384F8463041F20903CDE7159BD90706D594F84230A6
:2009E00043F0010384F842300027636D072BD5D9012309E1204614AA11A9FFF7B9FE41F22F
:200A000003030790079F9F420FD0079F41F203030497049A9A423FF42EAF049B0BB1002351
:200A2000F370049825B0BDE8F08F1498FFF78EFE28B9132341F2080784F84630E6E74379BC
:200A400094F824219A4205D9132341F20E0784F84630DBE7026871498A4205D00289D207B0
:200A600048BF013384F8243194F84230D9070DD5028994F84330920706D53BB1132341F257
:200A8000010784F84630C1E7002BF7D0037984F84630BBE7D4F848A000F0D4FA802302217A
:200AA000CDE9000315AA3B46504601F0EDFA03E7226D0123A265002284F84330E26584F857
:200AC0004630D8E614AA2046CDE9009911A901F014FA41F203030990099A9A4201D0099BF0
:200AE00047E714AF06F108030DF1680C3A4603CA624518605960174603F10803F6D11068D1
:200B00001860337843F001033370EEE6337843F004033370179BB36273785F0726D5EB235B
:200B20008DF8503017238DF85130A6238DF852305E2300208DF85330236D6066C4F8843031
:200B400094F8453043F0020384F84530EF686FB104222B6814A9B8470822606E2B68EF689D
:200B600016A91044B847636E103363660B2384F84630636D072B3FF6BFAE012316AACDE928
:200B800000332046082311A901F0B7F941F203030A900A9A9A42B9D00A9BEAE63378159A8B
:200BA00043F002033370149B7360236D083B73622AB1132384F8463041F20103D9E6042310
:200BC00084F8463094F84530626643F0010384F84530AEE6042314AA2046CDE9007711A96C
:200BE00001F08BF941F203030C900C9A9A4201D00C9BBEE6236D042B02D9149B2366012713
:200C0000636D032BE6D9092384F8463074E600236366072353E700BFEB17A603F90707F9E5
:200C20008F42FFF47FAE402928BF40218F4228BF0F46032F88BF27F003073B4614AA2046C6
:200C4000CDE9009911A901F058F941F203030D900D9A9A4201D00D9B8BE694F846A0BAF1E9
:200C6000070F04D1D5F808B0BBF1000F1BD1042FC7F1040B88BF4FF0000B14AB5A46FF2153
:200C8000D81901F02EFCBAF1090FBB4414D12B465A46204614A901F0A5F90D900D9B002B6E
:200CA0003FF42FAED7E73A462B68606E14A9D847626E3A44626624E6BAF1040F21D17378EE
:200CC00098077FF51EAEEB68002B3FF41AAE626E042A0BD80BEB0203062B07D915AB9B1A5A
:200CE0001A68C4F884204FF0FF321A605A462B68606EEF6814A9B847626E0BEB0207676678
:200D0000FFE5BAF10B0F7FF4FCAD737859077FF5F8ADD5F80CA0BAF1000F3FF4F2AD5A4605
:200D20002B68606E14A9D047E6E700218A6A496B1269503A91423FF63FAF112B0FD194F845
:200D40001831002B7FF454AE41F206030E930E9A9A4202D1132384F846300E9B09E694F82A
:200D60004430002B7FF444AECDE9003314AA4023204611A901F0C1F841F203030E900E9A1C
:200D80009A42EAD1E06C01F0BFF994F81831A3B104F1B403E06C00931CAA04F1940314A904
:200DA00000F0A6F80E900E9B9BB10023F370132384F8463041F20603DBE5E76C00F012F91A
:200DC000039000F027F9039B00901CAA384614A9E6E70123F37084F8443009E6002314AA2D
:200DE000CDE900332046042311A901F086F841F203030F900F9A9A4202D00F9B049310E6EE
:200E0000D4F888202F4B9A4205D0132384F8463041F20503F2E70123F37094F84530DA078E
:200E200007D5EF682FB104222B68104604F18401B84794F845309B0707D5EF682FB104223B
:200E40002B68104604F18401B847236E6BB36F685FB34FF0FF3304F18001042210A8109330
:200E6000039101F021FB28B1042248F204002B680399B84704F168090422494610A801F0A2
:200E800013FB90B100239B6A1422D3F8108004F16C0108F10800D5E90037B847D5E90037FE
:200EA0000422494608EB0200B8470123B3700E2384F846300023A1E70023F37041F20700B4
:200EC000B0E500BFE320BBDE30B501240025074B01445C609D601A61DC60884201D1586A8E
:200EE00030BD10F8012B1A62F7E700BF008008402DE9F04399B00E4615461C460746DDF82B
:200F00008090002861D000295FD0002A5DD0002B58D02F4B2F4AB9F1000F14BF9846904633
:200F20001C22002111A801F0DCFA2B4B414610A8109301F06FFA202110A801F06BFA0122AE
:200F4000264B019402920393CDF810900592069354B1B9F1000F07D001A910A801F046FAA4
:200F600004A910A801F042FA079701271B4C07A910A80897099401F039FA0AA910A80A96DF
:200F80000B970C940D950E970F9401F02FFA0DA910A801F02BFA10A801F045FA104B0093B1
:200FA0004FF098435A6CD202FCD55B6D40F2046003F470230093009B002B08BF002019B0BB
:200FC000BDE8F083DFF80C80AAE740F20160F6E71F2400801F24FC840000010620000020C8
:200FE0007856341200B591B00023402269464FF4807000F0C5FCB0F5A02F07D0B0F5302F80
:20100000034818BF002011B05DF804FB0048FAE74CE30B0000B591B00023402269464FF4A9
:20102000807000F0ADFCB0F5A02F07D0B0F5302F034818BF002011B05DF804FB0048FAE758
:201040006CE30B000048704786E20B002DE9F34799460A9B0C46196805463F29164642D8F4
:201060005A68002A41D0224A002E14BFB046904601F03F07091928BF5A68196024BF0132A9
:201080005A60AFB1C7F1400AA24521D82946524609EB070001F018FA0123414600934A4681
:2010A0003346002000F086F8B046403C55443C443F2C0CD9A3092A4600934146334600207F
:2010C00000F078F824F03F031D4404F03F0400272CB12246294609EB070001F0F5F90020ED
:2010E00002B0BDE8F0879046C2E7DFF80480BFE74826000030B40546084611461A46DDE93A
:20110000023425B931B1029430BCFFF79FBF024830BC70470846FBE780AFFFFF2DE9F04172
:201120001746146886B01E46E3008DF80F30630952688DF80E30630B8DF80D30630D8DF887
:201140000C30D30003EB54738DF80B3004F03F045309372C8DF80A304FEA52334FEA5252BB
:2011600005468DF80820884694BFC4F13802C4F17802CDE900178DF809300D4903460020EE
:20118000FFF7B8FF082143462A4600970DEB0100FFF75CFF284605F1200350F8042B9842C7
:2011A00046F8042BF9D1002006B0BDE8F08100BF68260000F0B593B00E461746044620229A
:2011C00000210AA81D4601F08CF901204FF0005201970290039204960590069207950890F7
:2011E0000992002C2FD1189C184BA40121460AA80A9301F00FF903990AA80C430394069BE8
:2012000004A943F020030693099B43F02003099301F0ECF801A90AA801F0E8F807A90AA838
:2012200001F0EEF80AA801F0FEF84FF098435A6CD202FCD55B6D13F4702F0CBF00206FF001
:201240006F0013B0F0BD6FF07100FAE7000401032DE9F041A2B0502204460D460EA8002177
:2012600001F03FF93422002101A801F03AF901A800F0D4F9049B012B11D8002320466A1ED6
:201280009D424FEA82024FF0FF0108BF1A4640F8043B01F026F9002022B0BDE8F081AB42D0
:2012A00060D300F0D0FF059B0C220EA90646DF6801F030F80028EFD1DFF8B4800E9B4345E7
:2012C00015D1109A0EA9304601F024F84FF0FF3210990EA8FFF7F8FD244B98422ED0FF2123
:2012E0002046AA0001F0FDF840F20650D4E737440C2238460EA901F00DF80028CCD10E9B73
:20130000434507D0FF212046AA0001F0EAF840F20550C1E70EA93846109A00F0FBFF059BD3
:201320003046D96801F033F80028B5D13046109A0EA901F005F80028C3D0ADE7109E11A9B0
:20134000103EB608AE4228BF2E46B7003A46204601F0BAF8AA1B9200B54238BF0022FF216F
:20136000E01996E740F2045096E700BFE320BBDE39528FE144222DE9F043A3B00C46814683
:2013800000210DEB020001F0ACF8012350262E4A0021CDE90E2301A83422109601F0A1F854
:2013A00001A800F03BF9049BA34249D3012B0AD8D9F8003040F204500133012B98BF002054
:2013C00023B0BDE8F08300F03EFF102C28BF1024059B4FEA8408DF68424649460744054645
:2013E00011A801F071F8C4F110040EAB08F10C001844FF21A20001F074F84C214FF0FF32FB
:201400000EA8FFF761FDC043059B2190D968384600F0BDFF0028D3D1324638460EA900F09A
:201420008FFF0028CCD1059B2846D96800F0AFFF0028C5D1324628460EA900F081FFBFE7FB
:2014400040F20450BCE700BF39528FE131B10A4B5A68824205D80023C1E9003340F201409C
:201460007047013053F8302003EBC00043680A6000204B60704700BF0C27000070B40C463C
:2014800011460C4A556885420DD9013002EBC0067668E518B5420AD852F830001A4620445F
:2014A00070BC00F037BF40F2014070BC704740F20240FAE70C27000030B5CA681B4B044675
:2014C0009A420D46A3B019D100F03FFCD4F82432174A013352F83330D4F82C2213449842C6
:2014E00008D38033984209D241F20D03C4F8303223B030BD00F540409842F5D88023D4F8FD
:201500002C1202AAD4F82402FFF7B8FF80232146009502AA04F12C00FFF7A2F9D4F82C321B
:20152000C4F830028033C4F82C32E1E7A91C00000C27000070B50D46002186B00DF1070359
:2015400002931D4B04461646116028461C22CDE903338DF80710059300F0C3FFD4F83032CB
:201560002BBBD4E98A21914207D2204602A9FFF7A3FF9DF80730002BF0D02278910744BFDC
:2015800061683160D20709D504F1080204F1240152F8040B8A4245F8040BF9D14BB9237847
:2015A00040F20640002B18BF002006B070BD0023E3E70020F9E700BF5122000070B40C4619
:2015C00011460C4A556885420DD9013002EBC0067668E518B5420AD852F830001A4620441E
:2015E00070BC00F0ADBE40F2014070BC704740F20240FAE70C270000074B5A68824207D9CE
:20160000013003EBC002516853F8300000F0BFBE40F20140704700BF0C27000070B50546BC
:2016200088B0C0B14FF4403200236C46C0E900230A4B05F114061A785B680272C3606846AC
:2016400000F06EF80FCC0FC694E80F0086E80F0005F114032B6108B070BD00BF0C2700000C
:2016600000B5ADF5137D4FF40D7205A900F021FE78B904238DF81530074BCDE90100039046
:2016800001A905A8049300F028FE0DF5137D5DF804FB0020F9E700BFA91C0000002300B504
:2016A0009B6AADF5137D9B688B4204D300200DF5137D5DF804FB4FF40D7205A900F0F9FDF0
:2016C0000028F3D102238DF81530054BCDE90100039001A905A8049300F0FFFDE7E700BF2E
:2016E000A91C000000B5ADF5137D4FF40D7205A900F0DFFD78B901238DF81530074B019000
:20170000CDE90230049001A905A800F0E6FD0DF5137D5DF804FB0020F9E700BF891C0000D9
:2017200070B504460646044D0FCD0FC495E80F0084E80F00304670BDEC260000024BD869A4
:2017400000F00100704700BF00000340F0B5114A114C124E00F00105E3695F0713D40DB9CD
:20176000334213D103EA00078F4207D10B4A1A40002A14BF6FF001000020F0BD013AEBD1A3
:201780006FF00200F9E74FF0FF30F6E76FF00100F3E700BF809698000000034002000100D0
:2017A00070B5134C6061E3695B071ED40E4656F8043B8D18A361AE420BD104230021212065
:2017C0002361FFF7C3FF58B9BDE870402120FFF7BDBF08210846FFF7B9FF10B10423236123
:2017E00070BD56F8043BA361E5E74FF0FF30F7E70000034038B541F6713301220C4C00216C
:20180000E569E3630B4B05F48035DA600223606121202361FFF79AFF10B92120FFF796FF27
:201820000122054BDA600DB10023E36338BD00BF0000034000100340002003402DE9F843D6
:20184000154641F67132164B8946DF69DA630122064603F58053DFF8508007F48037DA60D1
:2018600055B9284601220F4BDA601FB10022A3F50053DA63BDE8F88306F5005404EA0804B2
:20188000A41BAC4228BF2C46494622463046FFF787FF0028E6D12644A1442D1BE0E700BF5D
:2018A000000003400020034000E0FFFF2DE9F04F06464FF4502501202A4CDFF8B4C041F632
:2018C0007137CCF8040044F8265030250024DFF8A4E0DFF8A49005FB06E5EC652C662C67A6
:2018E000214CDFF898A0D4F81C80E763E76800FA06F60743E7604BB9E26818F4803F22F0B9
:201900000102E26000D0E363184628E001F5005000EA0900401A984228BF18466161D4F8C6
:201920001CB087081BF0040F17D1013F3F0147F060576F66AA66C5F86CA0CCF82460DEF80C
:2019400034703E42FBD0094F01447E630427CCF82860024427611B1ACDE74FF0FF30BDE8D9
:20196000F08F00BF004004400000034000200440001004400000044000E0FFFF180003402D
:20198000F0B507460F4D10488DB0002B08BF05460E46144600211C2205A800F0A2FD0123BA
:2019A00004A801A93D4344F00054019604950293039400F025FD00F036FD00F00EFD0DB080
:2019C000F0BD00BF01000AFF010008FF054B5B69C3F38512827003F03F021B0B42700370B7
:2019E000704700BF00C007402DE9F04104681E4624F04003802B05468846174692B002D0C7
:201A0000B4F5807F43D11C2200210BA800F069FD224A234B0121B8F1010F18BF13460A9320
:201A20002B1D0193E4081F4B44F0005402910AA803940497059106930796089101A90993CA
:201A400000F0D4FC04A90AA800F0D0FC07A90AA800F0D6FC29680AA8C90800F0DBFC10217B
:201A60000AA800F0D7FC00F0FCFC98B90AA800F0DAFC4FF098435A6CD202FCD55C6D00F002
:201A8000F2FC04F47024204612B0BDE8F0816FF07100F9E74FF0FF30F6E700BF00010104CE
:201AA00000010004100000202DE9F04F9BB00746894698461646DDF894B072B115683B689F
:201AC00023F04002802A03D0B3F5807F40F0A6800BEB0903002400930DE01546EFE795B11A
:201AE000249A1BF80430525D01355340269A05F00F05135501344C45F1D3002E00F091807F
:201B00000020356067E0A9EB040ABAF10F0F57D91C22294613A800F0E4FC434B3A68129321
:201B20003B1D03930123D20842F00052049305923E4A2699CDF818802AF00F0A07930892FC
:201B4000CDF824800A930B920BEB04020C9221444AF000520D9312A80E920F9103A910936E
:201B6000119200F043FC06A912A800F03FFC0CA912A800F03BFC0FA912A800F041FC09A918
:201B800012A800F03DFC396812A8C90800F042FC514612A800F03EFC00F063FCC8B912A803
:201BA00000F041FC4FF098435A6CD202FCD55B6D544403F47023019300F055FC019B5BBB02
:201BC000269B0BEB040A1C44009B9A4506D14C4691E74FF0FF301BB0BDE8F08F8DB942465A
:201BE00001213846249BFFF7FFFE0028F3D108F1100212F8013D0133DBB213700BB9904577
:201C0000F7D1249A1AF8013B525D0135534004F8013B05F00F05D7E71846DCE76FF01F00DA
:201C2000D9E73046D7E700BF0303000410000020FEE74FF098435A6CD202FCD5586D00F494
:201C400070207047C0F30C032DE9F04105460F4616460BB900F002F905F5005424F4FF54D0
:201C600024F01F0405EB0608A04507D8324639462846BDE8F041022300F0F7B8204600F016
:201C8000EDF804F50054EFE770B40025AD6A03462E69864206D86C6913449C4202D370BC4B
:201CA000FFF7D0BF70BC70471FB510F5004F00F50043144603931AD2039BB3F53E2F16D2E5
:201CC000039BC3F53E23934211D348B9836A5A69B2F5004F04D91869019100F0BFF80199BC
:201CE0002246039804B0BDE81040FFF7ABBF04B010BD036913F0FE0F0CBF01200020704718
:201D000038B504460D46FEF781FA48B16369012B09D12046FFF7EDFF08B1A3692B6038BD71
:201D200001202C60FBE70020F9E74FF0FF3313B5044601A80193FEF787FB20B1019BA3428B
:201D40002CBF0020012002B010BD4FF40040704700F0DEBA00F03FBB4FF48043184601685F
:201D600081F3088881F3098840688746FEE74FF40170FEF7C1BCB1F50D7F10B504460FD3B7
:201D80004FF40D72002100F0ACFB04F5DE7204F5AA7104F12C000023BDE81040FEF726BD5B
:201DA00040F2052010BD13B50446009101462C30FEF756FDC4F8300218B141F207039842A3
:201DC00009D1A3784BB140F2032040F20223E278002A08BF184602B010BD40F20120FAE70A
:201DE0002DE9F04387B00DF1080904460E4617460021102248461D46DDF8388000F071FB2C
:201E000000211C22C8F80010284600F06AFB32463B462146CDF8009004F12C00FEF720FDE8
:201E200023789A0744BF6268C8F80020DB0709D504F1080304F1240253F8041B934245F862
:201E4000041BF9D1237840F20640002B18BF002007B0BDE8F0834FF40D70704708B5FFF76B
:201E6000C9FCB0FA80F0400908BD072B10B5044618460FD862B142EA04039B070AD11346D3
:201E80000A462146FFF712FDB0FA80F0400910BD0120FCE70020FAE7134610B542B10343FA
:201EA0009B0707D1FFF7CAFCB0FA80F0400910BD0120FCE70020FAE770B5D1E90152AA4299
:201EC00005D290F840302B449B1A402B10D9002012E00A6890F84040D65C90F841200133E0
:201EE000224402F03F02013486548B6080F840408B689D42EDD8012070BD2DE9F8431D46BE
:201F00001746D1E901329B1A90F84020044613449D420E469DF820909DF8248056D9FFF763
:201F2000CBFF00285CD1132341F2020084F84630BDE8F88394F84120A25CFA5494F84120DF
:201F40000133013202F03F0284F8412094F84020013A84F8402094F840200AB19D42E9D1C7
:201F6000D6E90121914201D29D4231D89D42DAD129463846D4F88820FEF7A6FFC4F8880029
:201F8000B9F1000F04D02A463946E06C00F0BAF8B8F1000F08D094F843308BB12B463A461B
:201FA0003946A06C00F093F894F8433043B1E36DA26D2B449342E36524BF002384F8433048
:201FC000636D41F203002B446365B1E70023C2E73268525CFA54B26801330132B260BFE791
:201FE0000020A5E72DE9F743044658680E4617469846002842D011F0030342D19B6A206E65
:202000001B6902EB000C1D1D65451CD81C33984219D28542294638BF01469C4594BFC1EB03
:202020000C02C1EB0302081AC5F1680506EB0009681820444946019200F046FAFF214846BE
:20204000019A00F04EFA48F20403226E9A420BD848F20701B818884206D99B1AF258C4F8A7
:2020600080204FF0FF32F2503A46D8E90035206E3146A8470020226E3A44226603B0BDE896
:20208000F08341F20200F9E7F7B50446203016461D460F46019000F0E8F9DDE90812019883
:2020A00000F0E7F9002384F8587063643368C4F859307368C4F85D30B368C4F861302B0C7F
:2020C0006DBA84F86530A4F8665003B0F0BD1FB50C46194600F14803CDE90142009300F1D8
:2020E000440200F158032030FFF7DEFC04B010BD10B5044600F00BF82046BDE8104000212F
:2021000000F009B800F00CB8014600F016B86822002100F0E6B90023C0E900331846704707
:2021200007B500F128030190009300F108030020FEF7E0FF03B05DF804FB02460B4600F122
:2021400028010830FEF7EABF30B59FB034220021054601A800F0C5F901A8FFF75FFA049C9B
:20216000012C1ED921460EA8FFF772F818B140F2055398420ED100230EAA52F8041B481C0A
:202180000AD11EAA02EB8303214643F8405C0EA8FFF7F0F81FB030BDA94205D001339C42C9
:2021A000EBD140F20250F5E740F20350F2E710B5ADF50E7D4FF40D72002001A900F079F8C6
:2021C00040F20124002101A800F045F8A042F9D040F20323984220D19DF8043059070CD4DA
:2021E0009DF804309A071DD4DB0716D504998A98FFF778FA88B1002011E00B98FFF795FD1B
:202200000028EDD08A98FFF72BFA0028E8D04FF40040FEF7E9F80028E2D140F205400DF50F
:202220000E7D10BD0022926A029992689142DBD98A98FFF733FA0028EFD00A994FF40040BA
:20224000FEF78EF8E9E74FF4B8207047FFF7AFBF01221A7070471FB50023CDE90033CDE903
:202260000213D0F83032044693B9D0E98A329A420ED26946FFF720F9D4F8300298B141F220
:20228000070240F20123904208BF184604B010BDA3785BB140F2022040F20323E278002A10
:2022A00018BF1846F2E740F20120EFE740F20220ECE737B50C46054611462046FFF75BFD2C
:2022C00048B969462846FFF7C1F820B9019BC4F82452C4F8283203B030BD38B500F5DE72A2
:2022E00004460D46202300F5AA712C30FEF77EFAD4F830321BB9D4E98A329A4203D3A078E0
:2023000000B1E07838BD29462046FFF7D5F8EFE700207047B2F5402F10B5134604460846AE
:202320000BD8B4F5402F08D82344B3F5402F04D8214600F0C9F8002010BD40F20240FBE70D
:20234000B2F5402F10B506D8B0F5402F03D88318B3F5402F0ED940F2024012E0C458013485
:2023600010D104339A42F9D88B0705D10223FFF77CFD03E00023F5E7FFF78EFD0028EAD057
:20238000002010BD40F20340FBE70220704738B541EA0003C3F30C030446CBB9B1F5402F5D
:2023A0000FD8B0F5402F0CD80D18B5F5402F08D8204604F50054FFF751FDAC4204D000283F
:2023C000F6D140F2024038BD0028FAD00020FAE740F20440F7E7002070474FF098435A6CCF
:2023E000D202FCD5586D00F470207047436813B9416070475B685A68012AFBD1596070477D
:20240000836813B9816070475B685A68012AFBD159607047C369032B9FBF00EB8302013325
:20242000D160C3617047C369042B15D84FF09842116CC902FCD504339B0013650168103B18
:20244000116041680C30116050F8041C034411604FF09842984200D1704750F8041B116042
:20246000F8E700207047002070472422002100F038B870B515460E4624220021044600F013
:2024800030F825F04003802B02D0B5F5807F08D12046314640F8045BEA0800F015F800203A
:2024A00070BD6FF01F00FBE70139024410B5904201D1002005E0037811F8014FA34201D017
:2024C000181B10BD0130F2E70A44431E914200D1704710B511F8014B914203F8014FF9D1E6
:2024E00010BD02440346934200D1704703F8011BF9E70000F8B500BFF8BC08BC9E467047AD
:20250000F8B500BFF8BC08BC9E467047B814B6F1E0CFF3ADB7DD25C9FA79B71300000000BB
:2025200007B0CD5E0200000000000302342700000040000000000C00F0040100511D0000A8
:20254000551D000055020000771D0000A71D0000A8260000E11D0000571E00000000000019
:202560008D0400004B1D000013B779FAC925DDB7ADF3CFE0F1B614B80102000000000000DE
:2025800030270000400000000000030200000000000000000000000000000000000000009F
:2025A000000000000000000000000000000000000000000000000000EB17A603020100006D
:2025C00003000000FA0606FA0F04000003000000F40A0AF40505000001000000EB17A65ED5
:2025E0000A06000001000000F50909F50307000001000000F60808F60608000000000000B9
:20260000FE0101FE0808000000000000FD0303FD0C08000000000000F90707F9100900007F
:2026200002000000F30B0BF3110A000003000000F70A0AF7120B000003000000FC0404FC5C
:202640000D0C0000030000006A09E667BB67AE853C6EF372A54FF53A510E527F9B05688C53
:202660001F83D9AB5BE0CD1980000000000000000000000000000000000000000000000093
:2026800000000000000000000000000000000000000000000000000000000000000000003A
:2026A0000000000000000000000100001D1600004D1400007D140000BD150000F915000014
:2026C000751300005112000049210000B322000057220000351500003D1700001523000081
:2026E000412300008F2300008B2300001002030028000000280000000020000000000C0085
:20270000000000000400000000000040010000000100000000C0050000C00500282700009A
:1027200010100020020000005901000035010000D7
:2040000000100020816400001D9800002198000031850300259800002D9800003185030029
:204020003185030031850300318503003185030031980000D826040031850300318503005F
:20404000318503003185030031850300656900003185030031850300318503003185030083
:204060003185030031850300E1AB0000F95F0000697E0300318503003185030031850300D5
:20408000318503003185030031850300318503003185030049710000318503003185030057
:2040A00031850300C1720000A1720000318503003185030067E6030031850300410702003C
:2040C0006DE6030069E6030001FF010079E6030071E603000507020075E6030039ED0100E8
:2040E0008107020031850300318503003D990000318503003185030031850300318503000A
:204100003185030031850300318503003185030031850300318503003185030031850300D7
:204120003185030031850300318503003185030031850300000000002DE9F04F4FF0FF0B44
:20414000C9B099460DF11B089DF8503108AFCDF80C80CDF808B001970593038904460093B2
:2041600083790E46924641888288407812F02AF8054650B10090A388002062883C4912F0D0
:20418000F7FA284649B0BDE8F08F98F8000037F030FA38B12846A3886288364912F0E8FAF3
:2041A0008D25EEE75A46394698F8000037F0F6F98346002856D0529B1BB1BDF84C319842D7
:2041C00050D8002398F800800793A8F14102012A5FFA8BFE37D839460EF1FF3E264ADFF8F0
:2041E000A0C05FFA8EFE734501F1010125DB059B4FF0040E079243BB07A918231F489FED68
:204200001A7B03FB0602104682ED027B083072463DF057FBBAF1000F01D08AF80080B9F11B
:20422000000F01D0A9F800B0529B002BA9D05A46184608A93DF045FBA3E7087801334240E0
:204240000CFB02F2CFE7059B3BB1234642467146384600960DF060FF93E7BEF1080FD9D818
:204260003946CAE701258CE700000000000000000A6204003B620400C59D1C81901800209D
:2042800093010001000000002DE9F04F2DED088B8DB09DED1E7B09EE903ADDE920430A93A0
:2042A000229B09EE100A8A460792069351EC170B53EC172BB0EE478AF0EE678A32F0FEFBF5
:2042C00080B14FF0FF3251EC180BCF4B32F01EFC40B94FF0FF326FF4801351EC180B32F0A6
:2042E000F7FB98B1069B514622930A9B19EE100ACDE9204319EE903A079A8DED1E8B0DB065
:20430000BDEC088BBDE8F04F00F0A2B90022002351EC180B32F0DCFB002800F0448118EEB1
:20432000903A18EE108A03F10049069BC9F30A5013F48063A0F2FF3008BF06240B9332F0C3
:20434000EBF8A1A3D3E9002332F050F9A0A3D3E9002331F095FFC9F313050F4645F07F51E7
:2043600006460022A94B404641F4401131F086FF99A3D3E9002332F039F902460B463046AB
:20438000394631F07DFF32F0CBFB834632F0C4F893A3D3E9002306460F4632F027F9002258
:2043A0009B4B31F06DFF32F0BBFB8FA3D3E9002305463946304632F019F9064628460F461E
:2043C00032F0AAF88AA3D3E9002332F00FF902460B463046394631F051FF02460B460646FF
:2043E0000F4632F003F9324641EC1A0B3B463046394631F045FF002241EC1B0B854B51EC23
:204400001A0B32F01DFA0022834B31F039FF02460B4651EC1A0B32F013FA00227F4B31F0BE
:204420002FFF02460B4651EC1A0B32F009FA324641EC1A0B3B4600204FF0804131F01EFF85
:2044400002460B4651EC1A0B31F01AFF02460B4651EC1B0B32F0F4F905F2FF350022704B14
:2044600031F00EFF00222B0532F0C0F842464B4606460F4632F04AFB002840F09780CDE99C
:2044800008670BF16303C72B069B34BF04250525190521D558A3D3E900234046494632F04D
:2044A0002BFB002800F0BE8055A3D3E900234046494632F00DFB002800F0B48000255C4558
:2044C000CCBFA4EB0B000024AB46069BC8BF00F1FF3443F4806306930A9B9D4238BF5E1BAF
:2044E000069B28BF002613F0020702D0002D18BF0026BBF1000F07D0DDE90823404649466E
:2045000032F09EF9804689460022002351EC180B32F0DEFA10B109F100439946069B514699
:2045200023F40063CDE9036319EE100A19EE903ACDE90089079A029400F08AF875B3069B42
:20454000024613F0200F00F1010619EE903A14BF45206520514619EE104AA0470523002232
:2045600005930A238BEAEB70CDE90232A0EBEB704FEADB73013D0193009019EE903A3246A4
:20458000514619EE100A049538F09CFE37B1079BC51A079B58190A9BAB424CD80DB0BDEC70
:2045A000088BBDE8F08F59EC188BBEE6002230463946194B32F044F90BF1FF3BCDE90801E9
:2045C0005FE700BFAFF30080FB799F501344D33FB3C8608B288AC63F61436F63A787D23F16
:2045E00071A379094F930A401655B5BBB16B0240EF39FAFE422EE63F2D431CEBE2361A3F23
:204600000000000080842E41FFFFEF7F0000F83F0000E03F00002C4000002440000018403D
:204620000000F03F002C3FF457AF0B9B002B3FF453AF013C50E7024619EE903A514620207C
:2046400019EE104AA0470135A3E700BF000000002DE9F04F2DED088B8FB0DDE920AB08EECB
:20466000100A0F4608EE902A09EE103ADDE922535246049350465B465946249E32F01EFA9E
:20468000A0B9049B2396229303232193B84B209318EE902A19EE103A394618EE100A0FB0B5
:2046A000BDEC088BBDE8F04F38F044BD4FF0FF326FF480135046594632F00AFA30B1049B70
:2046C0002396229304232193AA4BE0E74FF0FF3250465946A84B32F019FA70B1A74A06F000
:2046E0000403002B08BF0322A54B1CBF1346042204992396CDE92121C9E7504698A3D3E9C7
:204700000023594632F002FA38B997A3D3E900235046594632F0DCF998B1049B18EE902ADB
:20472000CDE92253394619EE103A18EE100ACDE920AB24960FB0BDEC088BBDE8F04FFFF74E
:20474000A3BD002200235046594632F0C1F9002800F081805B4652460020002131F08EFD64
:20476000012382468B46059316F4806F08BF06253021A94606ABA5F12002B9F1090FA5EBFE
:20478000090406D909F1FF394A4503F8011BF4D120245946504632F0C3F97A4B054603EB3B
:2047A000C90393ED007BB0EE47AAF0EE67AA31F0B3FE02460B465046594631F05FFD53EC58
:2047C0001A2B31F013FF02460B4643EC1B2B32F0CFF9804631F090FE02460B4651EC1B0BF8
:2047E00031F04CFD02460B4643EC1B2B0022664B32F08CF988B308F10108404631F07CFE69
:2048000002460B4651EC1A0B32F06CF910B14FF000080135B9F1000F51D1284631F07CFEF4
:2048200002460B465046594631F028FD0022564B8046894632F04CF930B10022404649468D
:20484000514B32F063F910B1E80700D5013506AB0A2223445AE0059086E7002251EC1B0B7E
:20486000494B32F035F90028D4D1B8F1000F02D018F0010FCED008F10108CBE7B8FBF1F0FF
:2048800001FB1082B8F1090F02F1300209F1FF3904F1010403F8012B28D83021A14406AA6B
:2048A000202C11D04C4504F1010321D104F138020DEB02042E2204F8202C1C46C7E70A214F
:2048C00006AB2344202CD9D106F00303012B06AB39D1049A002A36D0059A12B916F00C0F8E
:2048E00002D0049A013A0492302214E08046E9E7A1541C46D4E795FBF2F102FB115530354E
:2049000003F8015B01340D460029DDD0202CF2D1DAE71A5501340499A14214D9202CF8D1EC
:20492000049A0093CDE9014219EE103A18EE902A394618EE100A039638F0FCFB0FB0BDEC7D
:20494000088BBDE8F08F202CEAD0059AF2B12D2104F138026A4402F8201C0134E0E700BF3C
:204960000000000065CDCD410000000065CDCDC10180040005800400FFFFEF7FFC7F04003E
:20498000F87F0400108004000000E03F710704D504F138022B216A44DDE73207C0D504F1E8
:2049A000380220216A44D6E770B58EB02C22002103A83CF0ADFF64234FF002320121089305
:2049C0008DF81010CDE905230B238DF83430504B1B88D80700F1958008464E4C20F0C6F864
:2049E0004D4B0A224D494E481A704FF42873ADF812301BF03FFF206020B940F227214948CB
:204A000004F00AFE0521206839F0D8F920B140F23221444804F000FE20680C2501F0F8FA82
:204A2000414B2068196839F041FA20F073FF6843099020F06FFF68430DEB05010790206871
:204A400016F0C2FA20B140F24721364804F0E4FD00223649206839F0AEFA20B140F249216F
:204A6000304804F0D9FD324E40F20353314D96F900002B8005237F28AB7001D120F070F9FF
:204A80003378EB7020F046FF00EB80008000A88020F040FF0023C0004FF0FF31E8804FF060
:204AA000FF30AB6018A3D3E9002320F031FA2249206839F072FE02A9206839F05BFA20B1D9
:204AC0004FF41F71174804F0A7FD042220680DEB020139F0D8F9042804D040F27F2111483E
:204AE00004F09AFD01A901203AF0EAFA04F0DAFE012021F079F933F0A0FF21F09FF920F067
:204B0000A1F90EB070BD00BF0A0020FF42030000465500203C4C002077630020994B0200A0
:204B2000181300200AA20400FC1000207E6300206C160020284C0020794C020010B5054C3A
:204B4000237833B9044B13B1044800E000BF0123237010BD681F002000000000DCA5040020
:204B600008B5034B1BB10349034800E000BF08BD000000006C1F0020DCA50400A3F5803AE1
:204B8000704700BF174B002B08BF134B9D46FFF7F5FF00218B460F461348144A121A3CF0C8
:204BA000B7FE0E4B002B00D098470D4B002B00D098470020002104000D000D48002802D03A
:204BC0000C4800E000BF32F09FF92000290033F002F932F085F900BF00000800000000005A
:204BE00000000000001000203C180020E4630020000000000000000008B5044A0121042059
:204C000007F03AFE0122024B1A7008BD981C0400E755002010B536F073FC022810D1FF210D
:204C2000084806F059FB22F0F9FB012007F044FEBDE81040034601210420034A07F01CBED8
:204C400010BD00BFFC1F0020AF1C04001FB536F057FC01210346114A042007F00DFE36F05F
:204C60004FFC02280AD10090002203210DF10E03012037F04BF905B05DF804FB084A0121F6
:204C8000042007F0F9FDFF21064806F025FB4FF4FA7105B05DF804EB22F046BBD21C0400D3
:204CA000DF1C0400BC1F00200023F0B587B0CDE90333059302F014FB04460346012104209D
:204CC000534A07F0D9FD24B101210420514A07F0D3FD0C23504E012130680DEB030215F064
:204CE00089FB4AF2554705464C4C00284AD0FA23ADF816300023ADF81030ADF80E304FF4FD
:204D00008073ADF81230642322688DF81430ADF80C7003AB03CB1060516018680C23906082
:204D200001210DEB0302306815F01AFB012103463B4A042007F0A0FD1025236800220621F1
:204D400000950333012037F0B0F823680022062100950433022037F0A8F82368002206213B
:204D600000950533032037F0A0F823680022062100950633042037F098F80122294B1A70E6
:204D800007B0F0BDBDF80C30BB4219D09DF80D300121009304209DF80C30234A07F06CFD8F
:204DA000FA23ADF816304FF48073ADF812306423ADF80C70ADF80E50ADF810508DF8143055
:204DC0009DF80E3001210420184A07F055FD9DF80E3022680133DBB2052B88BF00238DF8D2
:204DE0000E3003AB03CB1060516018680C23906001210DEB0302306815F0B2FA2268012125
:204E0000137A528904200092094A07F035FD93E7F31C0400071D0400D0100020981000207B
:204E2000191D0400E3550020331D0400531D0400731D04000022044B01211870034B0420F7
:204E40001A70034A07F018BDE9550020D8550020991D040010B5224A88B013780133DBB295
:204E6000132B02D8137008B010BD002313701D4A11780029F7D01C4C1370CDE90533079319
:204E800005AA0C230121206815F0B4FA4AF25543BDF814209A42E6D1144A0C23012112685E
:204EA000206815F05DFA0121C3B2114A042007F0E3FC05AA0C230121206815F09BFA9DF86B
:204EC0001930012102939DF81830042001939DF81730084A00939DF8163007F0CDFCC2E738
:204EE000D8550020E9550020D0100020981000201E1D0400AA1D040070B5054636F000FBA4
:204F00000446034601210420154A07F0B5FC022C0FD0032C20D0C4B90AF0B6FC01210346F1
:204F2000104A042007F0A8FC7DB101220E4B1A700BE00D4E55B10EF089FF234601210420A3
:204F40000A4A07F099FC0123337070BD35700848BDE8704033F0CABB0AF03EFBE5E700BFCD
:204F6000E91D0400041E0400E7550020231E04004825040038B5114C114A237823B1137850
:204F80000133DBB2132B01D8137005E0002501201570FFF7B1FF25700A4C0B4A237823B1B1
:204FA00013780133DBB2132B01D8137005E0002501201570FFF7A0FF257038BDDD550020EA
:204FC000DC550020DF550020DE55002008B51B4A13780133DBB2182B0FD81370184A1378D1
:204FE0000133DBB2092B14D81370164A1388012B84BF03F1FF33138008BD00231370FFF7C9
:20500000B9FF114B1B78012BE8D1104833F071FBE4E700210E4B11700E4A197013780133B7
:20502000DBB2092BE0D9117001220B4B0B491A700B7813440B700A4B1A70D6E7E2550020D6
:20504000D7550020204D0020E755002048250400E6550020EB550020E4550020E55500203C
:20506000DA55002038B5194D194C2B7853B12378B12B02D80020FFF73FFF23780133DBB281
:20508000B92B01D8237005E00023124823702B7033F029FB104C227832B910490B780133F8
:2050A000DBB2022B01D80B7038BD01200C4B0A701B6820709A70FFF7BDFE36F021FA0228C2
:2050C000F2D1BDE83840034833F010BBE7550020EC55002048250400DB550020ED550020D7
:2050E0009810002037B50E4C34F0C9F82288AAB10C4B1B68C11A914210D300250A4A0121B2
:2051000000930346042007F0B7FB2188074813F009FF258000F042FB054B1D7003B030BD94
:205120002E4D002020200020461E04006C1E0400E5550020012307B50A21084A00930848E4
:20514000002301F0BBF8FFF7AFFD00F09FFC142003B05DF804EB3AF0FCBA00BFCD4F000075
:20516000841F002013B50D4A13780133DBB2182B02D8137002B010BD0023012413700A21EC
:20518000074A0094074801F099F821460420064A02B0BDE8104007F06FBB00BFE65500209C
:2051A000CD4F0000841F0020791E0400034B1A781AB100221A70FFF755BF7047E455002004
:2051C00010B534F05CF80446FFF78CFF1D4A1368E31A092B34D91460FFF73CFEFFF7E6FF28
:2051E000194B1A88012A03D100221A8000F010FCFFF7B8FF154B1A781AB100221A7000F0EC
:2052000007FC134C13482368DB787BB133F06BFA236811481B7963B133F065FA23680F484F
:20522000DB794BB1BDE8104033F05DBA33F05EFAEEE733F05BFAF1E7BDE8104033F056BA27
:2052400010BD00BF1C200020204D0020EA55002098100020602504009025040078250400CF
:205260002DE9F041ADF5027D06460C4636F048F9022808D001210420284A0DF5027DBDE8E1
:20528000F04107F0F9BA264B1B681B79022B36D0244B1B78022B32D000214FF4FE7203A8C8
:2052A00002913CF035FB68238DF80830412300218DF80A30042023461B4A07F0DDFA03258B
:2052C0000334DFF8708002AF013EA4B2A542294619D10A220021154B1820CDE9007511F039
:2052E00007F90121C3B2124A042007F0C5FA0121084611F08FF90021084636F01BFE0DF538
:20530000027DBDE8F08116F8013F42467B54042000210135ADB207F0AFFAD7E7881E040071
:20532000A4380020475F0020AF1E04005C430400BC1E0400B31E04007FB5002406460D468D
:2053400002948DF80C4036F0DBF8022806D0012104201B4A07F090FA04B070BD194B1B68F9
:205360001B79022BF8D0184B1B78022BF4D010238DF80B5004258DF80A3002AB00930A2256
:205380000621124B019518208DF808408DF8094011F0AEF80E4AC3B20121284607F06CFABF
:2053A0003046012111F036F92146204636F0C2FD01210346074A284607F05EFACCE700BF88
:2053C000E21E0400A4380020475F00205C4304000F1F04004F1F040010B504460346012146
:2053E00004201A4A07F048FA912C0CD101210420174A07F041FA0120FFF77EFDBDE81040F2
:20540000144833F070B9902C1ED1124833F06EF9FF21114805F060FF002121F085FF00F0E2
:2054200035FB31F0B3FEBDE810404FF4FA7390FBF3F202FB1303094ADBB204331380012176
:205440000420074A07F018BA10BD00BF721F0400971F040048250400FC1F0020204D0020FA
:20546000D01F0400FF2310B50D4C1A4620460D4905F0F2FEFF230C491A460C4805F0ECFEEE
:20548000FF230B491A460B4805F0E6FEFF21204605F022FFBDE81040002121F045BF00BF84
:2054A000DC1F00204D4C0000154C0000FC1F0020F94B0000BC1F0020034601210420014A83
:2054C00007F0DAB90A200400F7B5DFF8F0C0374D9CF800C007462870BCF1000F64D0062905
:2054E00062D1002A60D1402B5ED10126304C0096234636F00BFD002856D10420314623782F
:205500002C4A009707F0B8F92878B04210D12A4E3368DA7823789A4201D0FFF78BFC2178A0
:205520003368D970287803B0BDE8F040FFF704BF02280CD1204F3B681A7923789A4202D0B1
:205540003046FFF777FC21783B681971EAE703280CD1194F3B685A7923789A4202D0304630
:20556000FFF768FC21783B685971DBE704280CD1114E33689A7923789A4202D00120FFF793
:2055800059FC217833689971CCE710280CD10A4E3368DA7923789A4202D00120FFF74AFCC4
:2055A00021783368D971BDE703B0F0BDD9550020E85500202820040098100020E355002052
:2055C0001FB50446034601210420074A07F054F90022402306212046CDE90222CDE90022C5
:2055E000FFF772FF04B010BD5120040008B501210420034A07F040F9BDE8084020F0A8BB6E
:205600008B20040038B5424B04461D68854223D132F0E7FFC0B93F4B1A78E2B13E4C187095
:2056200022680121D378042083F00103D3703B4A07F022F901202368D978FFF77DFEBDE8EB
:2056400038400120FFF7F6BB284632F0CAFF012801D1304B187038BD5D6885421DD132F022
:20566000C0FF98B92E4B1A78002AF4D02A4C1870226801211379042083F001031371294A59
:2056800007F0FAF8236802201979D6E7284632F0A8FF0128DFD1224BDCE79A6882421BD133
:2056A00032F09FFF98B9204B1A78002AD3D01A4C1870226801215379042083F0010353714A
:2056C0001A4A07F0D9F8236803205979B5E72046BDE8384032F085BFDB688342BBD132F0E3
:2056E00080FF0028F3D1124B1A78002AB3D00A4C1870226801219379042083F0010393716E
:205700000C4A07F0B9F823680420997995E700BFA8100020DD55002098100020B2200400C7
:20572000DF550020C7200400E0550020DC200400E1550020F220040070B505460C4635F082
:20574000DFFE022804D10E48BDE8704013F0EABB0C4B1B780BB10C48F6E70C4B1B780BB19D
:205760000B48F1E755B9552C08D1BDE87040094B012104201B78084A07F07EB870BD00BFA9
:2057800008210400E755002023210400DA5500203B210400D65500204D21040007B50B4BBA
:2057A0000B4A18689B880090ADF8043013786846591C8DF802304423117006218DF805305A
:2057C000FFF74EFD03B05DF804FB00BFF5230400EF550020F0B5ADF5017D07460E46154681
:2057E00000214FF4FE7201A81C463CF091F8FF230F4A8DF8003013788DF80170591C8DF86A
:205800000230012311708DF803308DF8056034B12DB1224629460DF106003CF052F8A11D3D
:20582000684689B2FFF71CFD0DF5017DF0BD00BFEF5500200A8830B4531C0B8001238354B5
:205840000A88D4180C8083540A88D4180C8083540B885A1C0A800022C2540A88054B551C68
:205860001C680D80E17881541B680348D97830BC13F058BB98100020622104000B8830B402
:205880005A1C0A800222C2540B885A1C0A800122C2540B889C180C80C2540B889A180A804A
:2058A0000022C2540A88064B551C1C680D80217981541B680348197930BC13F033BB00BFE0
:2058C00098100020762104000B8830B45A1C0A800322C2540B885A1C0A800122C2540B8854
:2058E0009C180C80C2540B889A180A800022C2540A88064B551C1C680D80617981541B68B4
:205900000348597930BC13F00DBB00BF981000208A2104000B8830B45A1C0A800422C254CA
:205920000B885A1C0A800122C2540B889C180C80C2540B889A180A800022C2540A88064BC8
:20594000551C1C680D80A17981541B680348997930BC13F0E7BA00BF981000209E2104001C
:205960000B8830B45A1C0A801022C2540B885A1C0A800122C2540B889C180C80C2540B8820
:205980009A180A800022C2540A88064B551C1C680D80E17981541B680348D97930BC13F0F0
:2059A000C1BA00BF98100020B221040010B50024ADF5047D4FF4FE72214605A804943BF078
:2059C000A7FFADF80E4003240DF10E0104A8FFF731FF0DF10E0104A8FFF750FF0DF10E011D
:2059E00004A8FFF7BDFFBDF80E3001210420074A009406F041FF21460620BDF80E3004AAC7
:205A0000FFF7E8FE0DF5047D10BD00BFCB21040008B535F075FD022806D0BDE80840012148
:205A20000420034A06F028BFBDE80840FFF7BEBFEF21040070B50D4600211446ADF5007D92
:205A400006464FF4FE7201A800913BF061FFFF23052C38BF05240C4A8DF8003013780DF17B
:205A60000500591C1170621F92B2691D8DF802308DF801603BF025FF21466846FFF7F0FBFE
:205A80000DF5007D70BD00BFEF55002007B535F033FD019031F04CFB01210420019B034AFE
:205AA00003B05DF804EB06F0E7BE00BF1D2204002DE9F04F00260546ADF50B7D89464FF450
:205AC000FE7231460BA80A963BF022FF6C78ADF82660022C00F0C180042C5FD0012C40F016
:205AE0004681A54813F01EFAA44B1A7822B91C70FFF7CCFFFFF78CFF6E7A95F80AB095F8F1
:205B00000B802F7BD5F8059035F0F6FC0446334601219B4A0090CDE90178042006F0ACFE8A
:205B2000B4FBF6FA06FB1A4A012153460420954ACDF800B006F0A0FEDA4511D131F026FB57
:205B400008F1010390FBF3F202FB130313FB07F3DFF864A29BB2AAF8003093B9FFF71EFE63
:205B600095F90D300121CDE9039304203346CDE90178854A009406F07FFE0DF50B7DBDE81B
:205B8000F08F33F07CFB814B012118600090BAF8003004207E4A06F06FFEE1E706247D480E
:205BA00013F0C0F9DFF8148295F805A0DFF810B2F3B2534508D34A4629460620FFF73AFF85
:205BC0000120FFF737F9D8E7A31CDAB255FA83F35878AB5C621C295DD2B243EA0023CDE94A
:205BE000006AAA5C6C48079113F09CF90799271D0429FFB209D851B105340239E4B2022977
:205C000008D8DFE801F010161C0010291DD03C460136CDE7E95DD8F800306048D97013F0DD
:205C200081F92746F3E7E95DD8F800305C481971F5E7E95DD8F800305A485971EFE7E95D85
:205C4000D8F8003058489971E9E7E95DD8F8003005345846E4B2D971E1E795F80590B9F139
:205C6000000F7CD10DF126010AA8FFF7E3FD0DF126010AA8FFF702FE0DF126010AA8FFF781
:205C80006FFE0324BDF8263001210420474A06F0F3FD21460620BDF826300AAAFFF79AFDCF
:205CA0006BE7102F3DD0FF2F47D00136F2B2931D4A45DBB2E6D2EF5C5046394613F032F914
:205CC000042FEED8002FF0D0023F01340DF126010AA8022F03D8DFE807F00C141C00FFF793
:205CE000A9FDD8F800303248D978E4B213F01AF9DBE7FFF7C3FDD8F8003029481979E4B276
:205D0000F4E7FFF7E1FDD8F8003026485979E4B2ECE7FFF7FFFDD8F8003023489979E4B226
:205D2000E4E70DF126010AA8FFF71AFED8F8003001345846D979E4B2D8E70DF126010AA862
:205D4000FFF778FD0DF126010AA8FFF797FD03340DF126010AA8FFF703FEE4B2A5E73446D6
:205D6000DFF860A0DFF85480DFF854B09EE72146104813F0D7F800E731220400EE5500200F
:205D80004522040075220400CA22040020200020A02204000D2304002B2304005D230400DD
:205DA0006A2304007823040086230400BC230400AE230400DC2304002E4D002098100020E8
:205DC00094230400A323040010B51E4C32F019FD236F23F0070343F00203236732F018FD2F
:205DE000D4F82031002023F0070343F00103C4F82031D4F8403123F0030343F00103C4F8BC
:205E00004031D4F8603123F0030343F00103C4F86031D4F8403223F0030343F00103C4F8CD
:205E20004032D4F8003223F0070343F00103C4F80032D4F8083223F0070343F00103C4F89A
:205E4000083210BD0080005007B501A802F0FEF89DF80530012B27D1214A936DDB0313D400
:205E6000536B23F4FF0323F4FE4343F4BC1343F4A0635363136B23F4704343F44043136385
:205E8000136B43F4E06313639DF8043063B94FF000531B68134B1B68134B1B68134B1B68F7
:205EA000134B1B68134B1B68134AD2F8803043F00303C2F8803002F0F3FC02F0AFFC02F036
:205EC000B5FCFFF781FF02F097FC00F013FD03F03DF801F005FA03B05DF804EB03F09EBFB7
:205EE00000C00050004000200080002000C0002000000120004001200080005030B5184D16
:205F000095B00DAC0FCD0FC495E8070084E8070001240021134B144A09A8CDE9032310221C
:205F2000CDE905413BF0F4FC4FF480210F4B0DAACDE907130B238DF824300C238DF8253075
:205F40000B4B07A90A9320230B930A4B0A48009303AB8DF8314002F01BFF15B030BD00BF62
:205F6000CC240400210300020080055024800550F0550020242000207C200020831E012BE7
:205F800010B513D8012911D8124B0422D3F8A0300021032003F0010301F0C8FE0E4B1B6852
:205FA0001868B0B1BDE81040436A18478B1E012B0DD801280DD8BDE810400022054B114679
:205FC000D3F8A030032003F0010301F0AFBE0129E4D910BD00C00350A410002008B5044909
:205FE000044803F0C5FFBDE80840FFF787BF00BF9C10002074200020014833F0F1B800BF62
:206000007C200020014B1A6A186810477C20002008B515F00FF80022014B1A7008BD00BF1C
:206020001056002008B5044832F0D6FABDE80840024832F0D1BA00BFE82404000025040003
:2060400008B5074832F04CFB064832F049FB064832F046FBBDE80840044832F041BB00BF50
:20606000482504006025040078250400902504000A46014931F052BF882604000A460149B4
:2060800031F04CBF9A2604000A46014931F046BF7E2604000A46014931F040BF4B26040079
:2060A0000A46014931F03ABF832604000A46014931F034BFB12504000A46014931F02EBF4F
:2060C0000E2604000A46014931F028BF672604000A46014931F022BF502604000A460149A5
:2060E00031F01CBFBE2504000A46014931F016BFC72504000A46014931F010BF7726040012
:206100000A46014931F00ABF6C2604000A46014931F004BF1D2604000A46014931F0FEBE29
:20612000282604000A46014931F0F8BEA82504000A46014931F0F2BE032604000A46014999
:2061400031F0ECBE482604000A46014931F0E6BE452604000A46014931F0E0BE422604006F
:206160000A46014931F0DABEBF2604000A46014931F0D4BEB52604000A46014931F0CEBE70
:20618000332604000A46014931F0C8BE382604000A46014931F0C2BEDB2504000A46014926
:2061A00031F0BCBED02504000A46014931F0B6BECC2604000A46014931F0B0BEC226040011
:2061C0000A46014931F0AABEC72604000A46014931F0A4BEB02604000A46014931F09EBE9D
:2061E0008F2604000A46014931F098BEA52604000A46014931F092BEB82604000A4601497F
:2062000031F08CBED42604000A46014931F086BED12604000A46014931F080BEEF2504000A
:206220000A46014931F07ABE622604000A46014931F074BE592604000A46014931F06EBE88
:20624000FA2504000A46014931F068BE3D2604000A46014931F062BEE42504000022094977
:206260000B684BB1834204D1836A4AB19362012070471A469B6AF4E70028F5D0184670471E
:206280000B60F4E7A020002010B5044690B104F00DFA2046FFF7E2FF58B194F82C0040B19E
:2062A00032F0CFFA044A1368013B136032F0CFFA002010BD2220FCE7A42000202DE9F04F45
:2062C00085B00546914698460E469DF8387009B9002F62D12846FFF7D7FF044600283CD11B
:2062E00085F82C00686304F0E5FA864239D904F081FA40F2E7318C462146E6FB00C14FF4A6
:206300007A726046002330F053FC4FF0FF32002383468A4630F04CFC4FF0FF32E8860023C4
:206320005846514630F044FC2B4611462846CDE900441B4A33F09FF8044670B9194AC5E9F5
:206340000898136885F82D702E6323B31A469B6A002BFBD195620023AB62204605B0BDE85E
:20636000F08F47B12B4631462846CDE900440C4A04F064FAE0E7304603A904F041FA04464C
:206380000028EAD12B462846CDE90077044A039933F04DF8D0E71560DDE72124DDE700BF04
:2063A000A9630000A020002091F82C3013B50C4683B98B8ECA8E93420ED243B9CDE90033AB
:2063C00020460B46104A4FF0FF3133F014F8A38E0133A38602B010BD52B191F82D307BB1EC
:2063E00001230093D1E908232046096BFFF766FF0123064A84F82C30136801331360E9E78E
:20640000084604F053F9F3E7A9630000A420002070B5104D2B681BB100260F4B1C6804B982
:2064200070BD94F82C3093B132F00BFA2B6884F82C60013B2B6032F00AFA94F82D3013B99F
:206440002046FFF70BFFD4E9083120469847A46AE5E700BFA4200020A0200020034B1B686D
:20646000002B0CBF01200420704700BFA4200020024B1868B0FA80F040097047A4200020BC
:2064800008B500F02DF8124B12498B4212D30020114B12498B4218D3FEF774FB186850F805
:2064A0002240586840F82240013298688242F5D30C33EAE70022F8E71C6844F8220001323B
:2064C0005C68A242F8D30833E4E70022F8E700BFE4A50400F0A50400F0A50400F0A504002B
:2064E0006FF00100104B114A10B59A60D3F888200F4942F47002C3F8882001F50052106633
:2065000041F2FF7050660220C3F8D000BFF34F8FBFF36F8F08244FF440330648C0F880418D
:20652000D36004600B6110BD00ED00E0004000000080004400E100E0014B1868704700BFB7
:20654000BC100020014B1860704700BFBC100020084B1B6F03F00703022B04D0032B05D04B
:20656000012B05D0FEE7044B18687047034BFBE70348704700800050BC100020C0100020D1
:20658000002D310108B5FFF7E3FF054B1B6FC3F301330133B0FBF3F0024B186008BD00BF38
:2065A00000800050B81000200048704700B4C404014B1868704700BFC0100020054B1860AE
:2065C000054B1B6F03F00703032B01D1FFF7DABF704700BFC0100020008000500048704720
:2065E000002D3101174B9868C0F304400C2822D8DFE800F0092121212121071719211B1DC0
:206600001F00114870479B6803F04073B3F1807F13D0B3F1007F12D00C4A002B08BF104679
:2066200070470B4870470B4870470B4870470B4870470B487047002070470A4870470A483F
:20664000704700BF0040015A405DC60000093D000024F400C0EA210180BA8C010048E801A4
:20666000005A620280841E0040420F00014B1868704700BFC4100020BFF34F8F0549064B44
:20668000CA6802F4E0621343CB60BFF34F8F00BFFDE700BF00ED00E00400FA0500239B6A25
:2066A000B3F5804F03D21968064A914203D00023037083607047012202709A689B694260AA
:2066C000F7E700BF07B0CD5E08B54FF00053024A1A60FFF7D1FF00BF02020FF073B5494BE2
:2066E00004461A781AB102221A7002B070BDCDE900220028F9D001261E7032F0A2F8424D9D
:20670000424B186017F0F2F92B785BB900F0E8FD40B93F4808233F4A3F49006813F06AFE67
:2067200000B92E703D4B5A68E2603D4A9A601A6E22605A6E6260D3F87021A2601B6E5C041A
:2067400040D5384AD368D807FCD4374B1A68531C3DD04FF480139340344A13660423334CF2
:2067600023664FF48063236631F006FF01300ED031F002FF40F20113984208D04FF480438C
:2067800023664FF4004323661023C4F870311023264C4FF0804223664FF4005368462366D5
:2067A00001A92266636631F0CCFE009B2366019B63662B78002B98D0164B1A6822665B6806
:2067C000636692E71A4AD368D907FCD4BDE7194B1B78002BC2D1184B5A68144B12B94FF43D
:2067E00080121A66154A526812B94FF400121A66134B5B68002BB1D14FF480020B4B1A6665
:20680000ACE700BF1356002011560020C0200020D0100020B82000200071080000800044E1
:2068200055CEAC0000000440C81000200090004400000450125600200080055000C00550B3
:206840000000065038B5224D04462B78012B02D001232B7038BD0028FCD031F08DFE013016
:2068600009D031F089FE40F20113984203D0194AD368DB07FCD42268174B1A6662685A665E
:20688000A268C3F87021E268D40744BF00229A60124B1A68013213D1114A127882B91149EE
:2068A0004968C80748BF1A600F4A5268D10744BF01221A600D4A5268D20744BF02221A60C1
:2068C00017F01CF90A4B186831F0C1FF0023C0E7135600200000044000800044C810002093
:2068E000125600200080055000C0055000000650C020002070B50024A36AB3F5804F22D20F
:206900001A68124B9A421ED1114E337813F0FD0517D11048FFF7E2FE08214FF480330E4A31
:206920000E48C2F88011C36011600D4A1361AB6ADB69984704460748FFF784FF0CB9012324
:206940003370204670BD4FF48174FAE707B0CD5E12560020A820002000E100E000A00044F1
:206960000090004413B51F4B1B7803B9FEE700231D4CCDE900336A4608231C49206813F09D
:2069800039FDF0B91A4AD2F84031D2F840211F2B4FF0010310D9203A9340019A1343019326
:2069A00008236A461149206813F0DAFC4FF00053104A1A60FFF760FE9340009A1343009331
:2069C000EEE70D4B9842F1D1094AD2F84031D2F840211F2B4FF0010302D9203A9340DEE7DB
:2069E0009340ECE713560020D010002000710800008000440B020FF00BE000F038B5002532
:206A0000AB6A0446B3F5804F10D21B6BB3F5804F0CD20748FFF762FEAB6A20461B6B5B687A
:206A20009847BDE838400248FFF70CBF38BD00BFC420002037B50025AB6A0446B3F5804FB0
:206A4000019113D21B6BB3F5804F0FD20948FFF745FEAB6A20461B6B01999B69984704468F
:206A60000448FFF7EFFE204603B030BD4FF48174F9E700BFC420002037B50025AB6A044696
:206A8000B3F5804FCDE9002112D21B6B83B10A48FFF724FEDDE90021AB6A20461B6B5B6AF3
:206AA000984704460448FFF7CDFE204603B030BD4FF40174F9E700BFC420002037B500252E
:206AC000AB6A0446B3F5804F019113D21B6BB3F5804F0FD20948FFF701FEAB6A20461B6B44
:206AE00001999B6A984704460448FFF7ABFE204603B030BD4FF40174F9E700BFC420002082
:206B000010B50024A36AB3F5804F10D21B6BB3F5804F0CD20748FFF7E1FDA36A1B6B1B6B0F
:206B2000984704460348FFF78DFE204610BD0124FBE700BFC420002037B50025AB6A0446F3
:206B4000B3F5804FCDE9002114D21B6BB3F5804F10D20A48FFF7C2FDDDE90021AB6A2046B9
:206B60001B6B5B6B984704460448FFF76BFE204603B030BD40F20114F9E700BFC420002005
:206B800037B50025AB6A0446B3F5804FCDE9002114D21B6BB3F5804F10D20A48FFF79EFD8F
:206BA000DDE90021AB6A20461B6B9B6B984704460448FFF747FE204603B030BD40F20114EA
:206BC000F9E700BFC420002037B50025AB6A0446B3F5804F019113D21B6BB3F5804F0FD2D6
:206BE0000948FFF77BFDAB6A20461B6B0199DB6B984704460448FFF725FE204603B030BD61
:206C000040F20114F9E700BFC420002005490A681318054883428CBF4FF0FF320B60104611
:206C2000704700BFCC1000200000012037B504680023012261790546207901F077F81422CF
:206C40003023217913FB012303F1A04303F570331B686279D340DB4303F001032370A3796E
:206C6000022B0ED100F0C6FA2A460749607900F0EBFA0123024661792079CDE9003301F031
:206C800011F8002003B030BDED8503004FF06043D3F8802E30B5D20715D501240B4D844072
:206CA000D5F8FC2042F08072C5F8FC20D3F8002E2243C3F8002E53F82020002AF0D003F837
:206CC0002010002030BD1120FCE700BF00ED00E010B5012243780178847830209A40054B45
:206CE00000FB01331CB942F210015A5010BD41F21001FAE700C0035010B501224378017880
:206D0000847830209A40054B00FB01331CB941F210015A5010BD42F21001FAE700C0035005
:206D20002DE9F04F9A46564B85B01B7806460F461546DDF83C909DF844B0DDF85080002BBF
:206D400000F08D80072A00F28C800E9B002B00F08880B9F1000F00F08480129BB3F5006FCA
:206D60007FDC012802D1109B002B7AD0454B03EB05131B7B002B76D0434C1022002168466F
:206D80003AF0C6FD04EB45141022002F59D1394620463AF0BDFD43F210036380BBF1000F84
:206DA00003D1E37843F00303E370374A0E9B02EB451CCCE90193129B6901013BC3F30A0044
:206DC0009DF84C30012E03F003034FEA836343EA001E53582D48CDF800A000EA03004EEA66
:206DE0000003535041D113230CF1100ECCF80C309CE80F008EE80F006FF00301DCF81C20FF
:206E0000109B61F39F02012FCCF81C20CCF8143003D1CCF81890CCF804300027194A2901AE
:206E200002EB051342F80180159A28465A60694622469F605E7301F007F8384605B0BDE80C
:206E4000F08F002120463AF063FD4FF444736380BBF1000FA9D1E37843F03003A4E70C48F0
:206E6000ECE70C48EAE70C48E8E7B8F1000FD4D19CF8023068F304138CF80230CDE700BF39
:206E800014560020D4200020542100200F80FFF3028000F0018000F0078000F038B5124B9A
:206EA00005461B78DBB1E0B131F0CBFC0F4A00231146147B54B92B6001251A0101EB0313B2
:206EC0001D738C5031F0C3FC204638BD0133082B02F11002EDD131F0BAFC0548F5E7054894
:206EE000F3E70548F1E700BF14560020D4200020048000F0028000F0018000F013B531F0F6
:206F0000A0FC00230B4A147B7CB90133082B02F11002F8D1019000F04BFF074B01981C7022
:206F200031F095FC204602B010BD31F090FC0348F9E700BFD420002014560020058000F010
:206F40000D4B10B51B78044693B1072812D831F078FC0A4B03EB04131A7B2AB100241C73C8
:206F600031F075FC204610BD31F071FC0448FAE70448F8E70448F6E714560020D42000209F
:206F8000068000F0028000F0018000F0154B13B51868002301908DF8043031F052FC124BB7
:206FA0001C7824B131F053FC104802B010BD01221A7031F04CFC0E4B01A81C731C7783F86C
:206FC0002C4083F83C4083F84C4083F85C4083F86C4083F87C4008238DF8073000F00AFFF2
:206FE0002046E2E72827040014560020038000F0D42000200A4A08B512785AB107280BD846
:20700000084A02EB00131B7B43B1002100F0E4FE002008BD0448FCE70448FAE70448F8E735
:2070200014560020D4200020028000F0018000F0078000F00A4A08B512785AB107280BD8A0
:20704000084A02EB00131B7B43B1012100F0C4FE002008BD0448FCE70448FAE70448F8E714
:2070600014560020D4200020028000F0018000F0078000F00A4A08B5127852B107280AD869
:20708000084A02EB00131B7B3BB100F02BFF002008BD0548FCE70548FAE70548F8E700BFD4
:2070A00014560020D4200020028000F0018000F0078000F00D4B1B7893B1072812D889B156
:2070C0000B4B03EB00131B7B73B10A4B1A6D012303FA00F010401ABF00200B7008707047BF
:2070E00005487047054870470548704714560020D420002000000450028000F0018000F0AF
:20710000078000F00B4A10B512780C4662B107280CD859B1084A02EB00131B7B43B100F006
:20712000F3FE2070002010BD0448FCE70448FAE70448F8E714560020D4200020028000F04A
:20714000018000F0078000F02DE9F843174B1F6D5B6D1F4000D5FEE701260025144CDFF8A4
:207160005480DFF85490374217D02368C8F850609BB1A168284601316268A1609847637BA8
:20718000012B0AD148B909EB45131A7B60F341021A731A7F60F341021A770135082D4FEA7F
:2071A000460604F11004DED1BDE8F88300000450D4200020002004505421002070B50446CB
:2071C00001250B4E04B970BD94FAA4F0B0FA80F005FA00F306EB001224EA03045368002B1A
:2071E000F0D0117B11B191689847EBE79847E9E75422002008B5192000F010FD28B14FF087
:207200000072074BC3F880211A601A2000F006FD28B14FF08062024BC3F880211A6008BDC5
:2072200000E100E038B505460C4631F00AFB0022044B03EB05135C601A73BDE8384031F0DF
:2072400006BB00BF54220020F8B505460F46164631F0F7FA104B05F0FC02D3F824140023E9
:20726000EC1804F00304144321FA04FC1CF0010F07D00133042BF3D1FF2431F0E8FA2046F7
:20728000F8BDFF2CF9D00122044B03EB0413C3E901761A73F1E700BF00C0035054220020DE
:2072A000064BD3F82404D3F8202403F50053104000F05530C3F82004FFF780BF00C0035044
:2072C000064BD3F82404D3F8202403F50053104000F0AA30C3F82004FFF770BF00C00350DF
:2072E000024B1968024B186812F064BFD4100020D010002037B5920004460D4601923AF0F2
:20730000BBFC431C0BD060B929462046019A3AF0C8FA0028044808BF002003B030BD0348C1
:20732000FBE70348F9E700BF10E000F021E000F024E000F010B504463AF0A6FC431C10D0A2
:2073400088B900F091FE234620F003002044984201D1002010BD53F8042B0132F7D0034835
:20736000F8E70348F6E70348F4E700BF0EE000F021E000F024E000F008B531F053FA014BE7
:20738000186008BD942A0020014B186831F04EBA942A002041F6713310B5104C104AA042C7
:2073A0008CBF4FF480140024D169D363936801F4803123F44013234393600A4B98420A4B2F
:2073C000D3F818228CBF42F0020222F00202C3F8182211B10022024BDA6310BD005A620223
:2073E0000000035080F0FA0200C007502E4B98424AD022D82D4B984240D014D82C4B9842B1
:2074000039D00AD82B4B984232D02B4B98422FD02A4B98422CD000207047294B9842FAD1A5
:20742000284B186F7047284B98422AD0274B9842F1D1244BD3F880007047254B98422BD090
:2074400009D8244B984223D0234B9842E3D11D4BD3F88C007047214B984221D003F57403F7
:2074600003F510539842D6D1164BD3F898007047144B986D7047134B586E7047114B586F9C
:207480007047104B986F70470E4BD3F8840070470C4BD3F8880070470A4BD3F890007047F5
:2074A000084BD3F8940070470048E8010024F400C0CF6A0080841E0000093D0040420F0028
:2074C000405DC6000080E00FC0EA210180BA8C01007E560380D54302006CDC020090D00329
:2074E00038B5134B0546D3F820010C4600F00700042804D8DFE800F01A0A0E121600002385
:20750000184605B1286004B1236038BDFFF714F80423F6E7FFF74CF80323F2E7FFF762F813
:207520000523EEE7FFF75AF80223EAE70123E8E70080005037B50C460021124A0191D2F836
:207540008021054602F00302022A0ED0032A11D0012A14D101A8FFF7C3FF0D230DB1019A36
:207560002A6004B1236003B030BDFFF73BF805230190F3E7FFF732F802230190EEE70B46F1
:20758000ECE700BF0080005038B5104B0546D3F840310C4603F00303022B0BD0032B0DD05C
:2075A000012B0FD130F0C7FF082305B1286004B1236038BDFFF75AF80723F6E730F0BEFF17
:2075C0000923F2E701230020EFE700BF0080005038B5104B0546D3F860310C4603F00303C3
:2075E000022B0BD0032B0DD0012B0FD130F0A3FF082305B1286004B1236038BDFFF736F8F0
:207600000723F6E730F09AFF0923F2E701230020EFE700BF0080005038B5144B0546D3F89A
:2076200000020C4600F00700042804D8DFE800F01B0A0E1216000023184605B1286004B171
:20764000236038BD30F077FF0823F6E7FFF70EF80723F2E730F072FF0923EEE7FEF792FFFD
:207660000C23800AE9E70123E7E700BF0080005038B5144B0546D3F808020C4600F007004B
:20768000042804D8DFE800F01B0A0E1216000023184605B1286004B1236038BD30F04BFF7A
:2076A0000823F6E7FEF7E2FF0723F2E730F046FF0923EEE7FEF766FF0C23800AE9E701237C
:2076C000E7E700BF0080005038B5104B0546D3F840320C4603F00303022B0BD0032B0DD01F
:2076E000012B0FD130F027FF082305B1286004B1236038BDFEF7BAFF0723F6E730F01EFFB0
:207700000923F2E700231846EFE700BF0080005038B5104B0546D3F800310C4603F00303A4
:20772000022B0BD0032B0DD0012B0FD1FEF740FF032305B1286004B1236038BDFEF796FFDB
:207740000723F6E730F0F5FE0623F2E701230020EFE700BF00800050032814D005D801284F
:2077600005D0022809D0002005E00F28FBD1084B186FC0F3013001307047054BD3F89000D8
:20778000C0F30460F7E7024B186FC0F38020F2E7008000501FB500230193252817D8DFE896
:2077A00000F0131A1D262B353A50555A5F646977161A3F1616551A262B26351A5026773A36
:2077C0003A3A3A2626265A5FFEF7C2FE0190019805B05DF804FBFEF7D5FEF7E7FEF7B8FE97
:2077E00002460220FFF7B8FFB2FBF0F0EEE7FEF7C9FE02460320F5E7FEF7C4FE02460320EB
:20780000FFF7AAFFB2FBF0F04008DFE7002101A8FFF790FEDBE7002101A8FFF761FED6E742
:2078200002934FF0E0231B695B0705D5FEF7AAFE0290029B0193CAE703A902A8FFF7A4FEB2
:20784000F7E7002101A8FFF79FFEC0E7002101A8FFF7BEFEBBE7002101A8FFF7DDFEB6E7F0
:20786000002101A8FFF704FFB1E7002101A8FFF74FFFACE7094BD3F8803003F00303022B17
:20788000A9D0032B01D00020A0E7FEF7ABFE9DE7002101A8FFF718FF99E700BF00800050C1
:2078A00008B50120FFF776FFBDE80840034988428CBF02210121032000F002B880F0FA02B3
:2078C000032810B50C4627D004D8012804D0022817D010BD0F28FCD130F087FF30F08DFF62
:2078E000124B013C196F21F4405141EA04341C67FEF748FE0021FFF74DFDBDE81040FFF753
:20790000CFBF0A4B013CD3F8901021F0F85141EA0464C3F89040DCE7044B013C196F21F478
:20792000806141EA84241C67D3E700BF008000501FB500230193252821D8DFE800F013200C
:207940002020202A2F454A4F54595E7120203420204A202020202A204520712F2F2F2F209A
:2079600020204F54314B1B6F03F00703013B032B05D8DFE803F00C02080A042301930198AC
:2079800005B05DF804FB0323F8E70623F6E70223F4E7002001A9FFF7CDFDF0E7002001A9A8
:2079A000FFF79EFDEBE702934FF0E0231B695B0705D5FEF7E7FD0B230393039BDEE703A921
:2079C00002A8FFF7E1FDF8E7002001A9FFF7DCFDD5E7002001A9FFF7FBFDD0E7002001A9BC
:2079E000FFF71AFECBE7002001A9FFF741FEC6E7002001A9FFF78CFEC1E70C4BD3F8803057
:207A000003F00303022B03D0032B05D00023B5E7FEF7B8FD0B23B1E7FEF7E4FD0523ADE7A9
:207A2000002001A9FFF750FEA9E700BF0080005038B50546FFF7DAFC214B04465A68012A72
:207A400004D120494A609A699207FCD10020FFF76FFF042803D130F0C8FE30F0CEFE1A4A1B
:207A600024F04073954221D0184A954221D0184AD16811F0060FFBD190689360916803F4F5
:207A8000F81301F4F8118B4216D12846FEF75AFD0020FFF74DFF042810D1FEF773FD00217A
:207AA000FFF778FCBDE83840FFF7FABE43F00073DDE743F08073DAE79060E9E738BD00BFCC
:207AC00000C0015000E0015040420F0080841E000000015070B504460020FFF729FF032888
:207AE0007CD045F60E030221414AC2F88030414B9962012103F580539962936DD903FCD4BB
:207B0000D4E900131B0543EA0163E17B94F822500B43217B94F8236043EA0143617B43EA17
:207B20000133A17B43EA811313619169D4E904031B0643EA806301F000410B43A17EE07ED4
:207B40000B43217E43EA0143617E43EA01239361136AE26923F00D03002A0CBF0021082179
:207B600043EA020343EA8003214A43EA0103136294F820304FEA431331D1906A94F82110EE
:207B800020F0330043EA0113034343F001039362194B916D33EA0101FBD10221154B996224
:207BA000936D5B00FCD41069A36820F4700040EA035010614FF000420E4B9A611DB90222D5
:207BC00003F580539A6216B901220C4B9A6294F824301BB1064B0A4AC3F8802070BD916AC5
:207BE00021F0330131430B4343EA45039362EEE700C0005000D000500300014000E000509B
:207C0000F1A7FFFF014B93F90000704715560020014B1880704700BFE0150020054B4209AA
:207C200053F8223000F01F0023FA00F0C04300F00100704700E100E00A4A10B51369044640
:207C400043F00403136102F03FFB30F003FE30BF30F001FE02F04CFB1CB9BDE81040FEF723
:207C600091BC10BD00ED00E0084A10B51369044643F00403136102F027FB30BF02F038FB6A
:207C80001CB9BDE81040FEF77DBC10BD00ED00E0034A0179D36E23F030030B43D3667047C6
:207CA00000400050072AF7B50D4614461F460FD803219600B14000FA06F21548019130F0B2
:207CC000CDFD05F0030201991248B24030F0C6FD114B12499DF82000002F08BF1946012332
:207CE00003FA04F40C600E4B0E49002808BF0B461C600D4B9DF82400C3F820441031A3F6AD
:207D0000DC33002808BF0B461C6003B0F0BD00BF00C4035008C4035010E4035010D40350C5
:207D200014D4035014E4035000E00350F8B504460D461F4616464AB101238B403021194AE1
:207D400001FB0022FFB141F21001535004EB4403072D4FF00F014FEA031317D8A80006FACF
:207D600000F281401048184430F078FD56B9012130230C4801FA05F503FB040077B141F2DD
:207D80001003C550F8BD42F21001DEE7A5F10800800006FA00F281400448E4E742F21003CD
:207DA000EFE700BF00C0035004C003500CC003504FF40012064BC3F88020BFF34F8FBFF3A2
:207DC0006F8F0022FF21034B5A6599625A60704700E100E000000450044A054B002918BF37
:207DE0001346012202FA00F018607047402004504010045030B5047845788178C278012022
:207E00000F4B41EA0541240658609C609961FF2199620021996319644FF0004159654FF08D
:207E2000FF314FF4001003F50053196505491301DBB2C1F8800181F81533086030BD00BFF8
:207E40000000045000E100E02DE9F04101250C46C3B2DFF888E0D1F800809D408F7ACB7A26
:207E600094F80DC0097BCEF850500EF5005E4EF820804FF0300E184E1B050EFB006043EADF
:207E8000074343EA415322F00302C0F860C0C365026730F0D6FC736D2B437365237A13B1DE
:207EA000336C2B433364637A13B1B36B2B43B3632279A37943EA0243084A93616179E37936
:207EC00043EA014306498B61034B55639D64BDE8F04130F0BCBC00BF0000045000200450FA
:207EE0000010045010B50124C0B2844030F0A9FC044B5A6D22EA04025A659C62BDE810405F
:207F000030F0A5BC0000045010B50124C0B2844030F097FC074BDA6A224209D15B6B34EA01
:207F200003030CBF0124002430F091FC204610BD0024F9E70000045041F67132034BDA638A
:207F4000012203F50053DA60704700BF0000035041F671320121044BDA6303F50052D160AD
:207F60000022DA63704700BF00000350014BD3F89400704700400050CB784A7810B55B01C1
:207F80000C7843EA82030A79234343EA02130C22424302F1B0421363012C02BF8A78024B35
:207FA00043F8202010BD00BFD080035008B54FF0B0435A6802B960B15B680BB130F065FC9A
:207FC0004FF0B04130B10120074B586030F05DFCC86008BD30F059FC0223CB6030F055FCC9
:207FE0000122024B5A60F4E700100058002000584FF0B0435B6870B50BB130F046FC012142
:20800000104B4578596083780679002BC37814BF02240024002B14BF042200224379DB00B5
:2080200043EA06132B43234313434FF0B0429360054B59600378002B14BF0B460223D36081
:2080400070BD00BF0020005800100058054B5B69C3F38512827003F03F021B0B4270037082
:20806000704700BF00C007500120034B9B680A3303F01F03984070470080E00F0D4B98427F
:2080800008D1A3F50033C3F88411C36D43F08003C3657047084B984204D1A3F51033C3F88F
:2080A0009411F2E7054B984204BFA3F52033C3F8A411EAE70080055000C0055000000650E9
:2080C00070B5054616461C4619B90320FFF762FB0146402C1BD003D8DCB1202C1BD070BDC0
:2080E000602CFCD1042303FB06F2560806EB4113B3FBF2F3094A203B02EAC303AA6822F050
:208100006002AA60AA681443AC60EB61E7E70623E9E71023E7E70823E5E700BFF8FF7F003E
:20812000012200F5805310B55A6040F6AA6341F205024361002312498360C365C26000F514
:2081400000520361C361C36491640E498365884206D00D4CA04203D004F58044A0420BD1C1
:208160008842036506D0084B984203D003F58043984201D1002343650123536010BD00BF62
:20818000FFFF01000080055000C0055070B50D46FFF7C6FF012300F580567360AB7C044690
:2081A0001BB1836843F080438360EB7C1BB12046297DFFF763FF2A8A6B7B20461343EA89CF
:2081C0001343E3602B7BD5E90112FFF779FF6B7D1BB1A36843F48033A360AB7D1BB1A36876
:2081E00043F40043A360EB7D2A7E1B07120502F4E00203F0E0431343A3656A7E931E012BA8
