:1040000000100020816400001D980000219800002D
:1040100031850300259800002D98000031850300AC
:1040200031850300318503003185030031850300AC
:1040300031980000D8260400318503003185030043
:104040003185030031850300318503006569000077
:10405000318503003185030031850300318503007C
:104060003185030031850300E1AB0000F95F0000FA
:10407000697E03003185030031850300318503002B
:10408000318503003185030031850300318503004C
:10409000318503004971000031850300318503003B
:1040A00031850300C1720000A17200003185030058
:1040B0003185030067E603003185030041070200F4
:1040C0006DE6030069E6030001FF010079E60300E5
:1040D00071E603000507020075E6030039ED0100F3
:1040E0008107020031850300318503003D990000FE
:1040F00031850300318503003185030031850300DC
:1041000031850300318503003185030031850300CB
:1041100031850300318503003185030031850300BB
:1041200031850300318503003185030031850300AB
:1041300031850300000000002DE9F04F4FF0FF0B28
:10414000C9B099460DF11B089DF8503108AFCDF864
:104150000C80CDF808B001970593038904460093BD
:1041600083790E46924641888288407812F02AF878
:10417000054650B10090A388002062883C4912F0A7
:10418000F7FA284649B0BDE8F08F98F8000037F0FC
:1041900030FA38B12846A3886288364912F0E8FA26
:1041A0008D25EEE75A46394698F8000037F0F6F9C3
:1041B0008346002856D0529B1BB1BDF84C31984223
:1041C00050D8002398F800800793A8F14102012AF3
:1041D0005FFA8BFE37D839460EF1FF3E264ADFF8EC
:1041E000A0C05FFA8EFE734501F1010125DB059B3E
:1041F0004FF0040E079243BB07A918231F489FEDF9
:104200001A7B03FB0602104682ED027B08307246E1
:104210003DF057FBBAF1000F01D08AF80080B9F1E8
:10422000000F01D0A9F800B0529B002BA9D05A462C
:10423000184608A93DF045FBA3E708780133424042
:104240000CFB02F2CFE7059B3BB123464246714689
:10425000384600960DF060FF93E7BEF1080FD9D8FD
:104260003946CAE701258CE7000000000000000085
:104270000A6204003B620400C59D1C819018002066
:1042800093010001000000002DE9F04F2DED088B97
:104290008DB09DED1E7B09EE903ADDE920430A9337
:1042A000229B09EE100A8A460792069351EC170BDF
:1042B00053EC172BB0EE478AF0EE678A32F0FEFB24
:1042C00080B14FF0FF3251EC180BCF4B32F01EFC97
:1042D00040B94FF0FF326FF4801351EC180B32F0FD
:1042E000F7FB98B1069B514622930A9B19EE100AE0
:1042F000CDE9204319EE903A079A8DED1E8B0DB053
:10430000BDEC088BBDE8F04F00F0A2B900220023FD
:1043100051EC180B32F0DCFB002800F0448118EE61
:10432000903A18EE108A03F10049069BC9F30A502F
:1043300013F48063A0F2FF3008BF06240B9332F021
:10434000EBF8A1A3D3E9002332F050F9A0A3D3E9FD
:10435000002331F095FFC9F313050F4645F07F5157
:1043600006460022A94B404641F4401131F086FF39
:1043700099A3D3E9002332F039F902460B463046BF
:10438000394631F07DFF32F0CBFB834632F0C4F882
:1043900093A3D3E9002306460F4632F027F9002203
:1043A0009B4B31F06DFF32F0BBFB8FA3D3E90023B1
:1043B00005463946304632F019F9064628460F467A
:1043C00032F0AAF88AA3D3E9002332F00FF90246AB
:1043D0000B463046394631F051FF02460B46064641
:1043E0000F4632F003F9324641EC1A0B3B46304699
:1043F000394631F045FF002241EC1B0B854B51EC57
:104400001A0B32F01DFA0022834B31F039FF0246BD
:104410000B4651EC1A0B32F013FA00227F4B31F0AD
:104420002FFF02460B4651EC1A0B32F009FA3246C6
:1044300041EC1A0B3B4600204FF0804131F01EFF4B
:1044400002460B4651EC1A0B31F01AFF02460B469E
:1044500051EC1B0B32F0F4F905F2FF350022704BE2
:1044600031F00EFF00222B0532F0C0F842464B46D9
:1044700006460F4632F04AFB002840F09780CDE90F
:1044800008670BF16303C72B069B34BF0425052582
:10449000190521D558A3D3E900234046494632F0F7
:1044A0002BFB002800F0BE8055A3D3E90023404633
:1044B000494632F00DFB002800F0B48000255C4531
:1044C000CCBFA4EB0B000024AB46069BC8BF00F199
:1044D000FF3443F4806306930A9B9D4238BF5E1B02
:1044E000069B28BF002613F0020702D0002D18BF3C
:1044F0000026BBF1000F07D0DDE9082340464946FE
:1045000032F09EF9804689460022002351EC180BB8
:1045100032F0DEFA10B109F100439946069B51468C
:1045200023F40063CDE9036319EE100A19EE903A03
:10453000CDE90089079A029400F08AF875B3069BCA
:10454000024613F0200F00F1010619EE903A14BF55
:1045500045206520514619EE104AA0470523002248
:1045600005930A238BEAEB70CDE90232A0EBEB70E6
:104570004FEADB73013D0193009019EE903A324609
:10458000514619EE100A049538F09CFE37B1079B8E
:10459000C51A079B58190A9BAB424CD80DB0BDEC0D
:1045A000088BBDE8F08F59EC188BBEE60022304630
:1045B0003946194B32F044F90BF1FF3BCDE90801C4
:1045C0005FE700BFAFF30080FB799F501344D33FF8
:1045D000B3C8608B288AC63F61436F63A787D23F09
:1045E00071A379094F930A401655B5BBB16B0240D0
:1045F000EF39FAFE422EE63F2D431CEBE2361A3F1E
:104600000000000080842E41FFFFEF7F0000F83F94
:104610000000E03F00002C40000024400000184053
:104620000000F03F002C3FF457AF0B9B002B3FF4F2
:1046300053AF013C50E7024619EE903A5146202014
:1046400019EE104AA0470135A3E700BF00000000A3
:104650002DE9F04F2DED088B8FB0DDE920AB08EE92
:10466000100A0F4608EE902A09EE103ADDE92253AF
:104670005246049350465B465946249E32F01EFA39
:10468000A0B9049B2396229303232193B84B209334
:1046900018EE902A19EE103A394618EE100A0FB0AB
:1046A000BDEC088BBDE8F04F38F044BD4FF0FF3251
:1046B0006FF480135046594632F00AFA30B1049B29
:1046C0002396229304232193AA4BE0E74FF0FF3275
:1046D00050465946A84B32F019FA70B1A74A06F075
:1046E0000403002B08BF0322A54B1CBF1346042262
:1046F00004992396CDE92121C9E7504698A3D3E92F
:104700000023594632F002FA38B997A3D3E90023BF
:104710005046594632F0DCF998B1049B18EE902AC5
:10472000CDE92253394619EE103A18EE100ACDE9B8
:1047300020AB24960FB0BDEC088BBDE8F04FFFF71F
:10474000A3BD002200235046594632F0C1F900288B
:1047500000F081805B4652460020002131F08EFD42
:10476000012382468B46059316F4806F08BF062509
:104770003021A94606ABA5F12002B9F1090FA5EB3E
:10478000090406D909F1FF394A4503F8011BF4D1A0
:1047900020245946504632F0C3F97A4B054603EBC4
:1047A000C90393ED007BB0EE47AAF0EE67AA31F0A3
:1047B000B3FE02460B465046594631F05FFD53ECBE
:1047C0001A2B31F013FF02460B4643EC1B2B32F041
:1047D000CFF9804631F090FE02460B4651EC1B0BA0
:1047E00031F04CFD02460B4643EC1B2B0022664B7E
:1047F00032F08CF988B308F10108404631F07CFEB4
:1048000002460B4651EC1A0B32F06CF910B14FF026
:1048100000080135B9F1000F51D1284631F07CFE76
:1048200002460B465046594631F028FD0022564BB1
:104830008046894632F04CF930B100224046494664
:10484000514B32F063F910B1E80700D5013506ABE2
:104850000A2223445AE0059086E7002251EC1B0B04
:10486000494B32F035F90028D4D1B8F1000F02D00D
:1048700018F0010FCED008F10108CBE7B8FBF1F03A
:1048800001FB1082B8F1090F02F1300209F1FF3982
:1048900004F1010403F8012B28D83021A14406AA11
:1048A000202C11D04C4504F1010321D104F1380230
:1048B0000DEB02042E2204F8202C1C46C7E70A2127
:1048C00006AB2344202CD9D106F00303012B06AB01
:1048D00039D1049A002A36D0059A12B916F00C0F75
:1048E00002D0049A013A0492302214E08046E9E7AB
:1048F000A1541C46D4E795FBF2F102FB115530356B
:1049000003F8015B01340D460029DDD0202CF2D1E3
:10491000DAE71A5501340499A14214D9202CF8D1B0
:10492000049A0093CDE9014219EE103A18EE902A4C
:10493000394618EE100A039638F0FCFB0FB0BDECB8
:10494000088BBDE8F08F202CEAD0059AF2B12D211A
:1049500004F138026A4402F8201C0134E0E700BF89
:104960000000000065CDCD410000000065CDCDC147
:104970000180040005800400FFFFEF7FFC7F04003E
:10498000F87F0400108004000000E03F710704D5A8
:1049900004F138022B216A44DDE73207C0D504F167
:1049A000380220216A44D6E770B58EB02C2200214F
:1049B00003A83CF0ADFF64234FF0023201210893BD
:1049C0008DF81010CDE905230B238DF83430504BB2
:1049D0001B88D80700F1958008464E4C20F0C6F899
:1049E0004D4B0A224D494E481A704FF42873ADF8CA
:1049F00012301BF03FFF206020B940F227214948C8
:104A000004F00AFE0521206839F0D8F920B140F2FF
:104A10003221444804F000FE20680C2501F0F8FA29
:104A2000414B2068196839F041FA20F073FF684360
:104A3000099020F06FFF68430DEB05010790206897
:104A400016F0C2FA20B140F24721364804F0E4FDE6
:104A500000223649206839F0AEFA20B140F24921EF
:104A6000304804F0D9FD324E40F20353314D96F9EF
:104A700000002B8005237F28AB7001D120F070F956
:104A80003378EB7020F046FF00EB80008000A880B8
:104A900020F040FF0023C0004FF0FF31E8804FF0CE
:104AA000FF30AB6018A3D3E9002320F031FA22498C
:104AB000206839F072FE02A9206839F05BFA20B153
:104AC0004FF41F71174804F0A7FD042220680DEB76
:104AD000020139F0D8F9042804D040F27F211148AE
:104AE00004F09AFD01A901203AF0EAFA04F0DAFE96
:104AF000012021F079F933F0A0FF21F09FF920F097
:104B0000A1F90EB070BD00BF0A0020FF42030000F3
:104B1000465500203C4C002077630020994B020052
:104B2000181300200AA20400FC1000207E6300205D
:104B30006C160020284C0020794C020010B5054C62
:104B4000237833B9044B13B1044800E000BF0123BC
:104B5000237010BD681F002000000000DCA50400C9
:104B600008B5034B1BB10349034800E000BF08BD73
:104B7000000000006C1F0020DCA50400A3F5803AB3
:104B8000704700BF174B002B08BF134B9D46FFF724
:104B9000F5FF00218B460F461348144A121A3CF0C9
:104BA000B7FE0E4B002B00D098470D4B002B00D0CA
:104BB00098470020002104000D000D48002802D075
:104BC0000C4800E000BF32F09FF92000290033F0CC
:104BD00002F932F085F900BF000008000000000073
:104BE00000000000001000203C180020E4630020BA
:104BF000000000000000000008B5044A0121042064
:104C000007F03AFE0122024B1A7008BD981C0400FE
:104C1000E755002010B536F073FC022810D1FF21B3
:104C2000084806F059FB22F0F9FB012007F044FE8A
:104C3000BDE81040034601210420034A07F01CBED2
:104C400010BD00BFFC1F0020AF1C04001FB536F0D4
:104C500057FC01210346114A042007F00DFE36F0EF
:104C60004FFC02280AD10090002203210DF10E030F
:104C7000012037F04BF905B05DF804FB084A01212B
:104C8000042007F0F9FDFF21064806F025FB4FF44C
:104C9000FA7105B05DF804EB22F046BBD21C0400AB
:104CA000DF1C0400BC1F00200023F0B587B0CDE955
:104CB0000333059302F014FB04460346012104204C
:104CC000534A07F0D9FD24B101210420514A07F0CD
:104CD000D3FD0C23504E012130680DEB030215F07B
:104CE00089FB4AF2554705464C4C00284AD0FA2326
:104CF000ADF816300023ADF81030ADF80E304FF49B
:104D00008073ADF81230642322688DF81430ADF84A
:104D10000C7003AB03CB1060516018680C239060DB
:104D200001210DEB0302306815F01AFB0121034647
:104D30003B4A042007F0A0FD10252368002206212D
:104D400000950333012037F0B0F8236800220621D4
:104D500000950433022037F0A8F8236800220621CA
:104D600000950533032037F0A0F8236800220621C0
:104D700000950633042037F098F80122294B1A7069
:104D800007B0F0BDBDF80C30BB4219D09DF80D3016
:104D90000121009304209DF80C30234A07F06CFD9C
:104DA000FA23ADF816304FF48073ADF81230642357
:104DB000ADF80C70ADF80E50ADF810508DF8143001
:104DC0009DF80E3001210420184A07F055FD9DF88A
:104DD0000E3022680133DBB2052B88BF00238DF82B
:104DE0000E3003AB03CB1060516018680C23906049
:104DF00001210DEB0302306815F0B2FA226801219F
:104E0000137A528904200092094A07F035FD93E78E
:104E1000F31C0400071D0400D0100020981000208F
:104E2000191D0400E3550020331D0400531D040028
:104E3000731D04000022044B01211870034B042051
:104E40001A70034A07F018BDE9550020D855002014
:104E5000991D040010B5224A88B013780133DBB2E3
:104E6000132B02D8137008B010BD002313701D4A15
:104E700011780029F7D01C4C1370CDE90533079346
:104E800005AA0C230121206815F0B4FA4AF2554313
:104E9000BDF814209A42E6D1144A0C23012112686D
:104EA000206815F05DFA0121C3B2114A042007F011
:104EB000E3FC05AA0C230121206815F09BFA9DF85C
:104EC0001930012102939DF81830042001939DF8B8
:104ED0001730084A00939DF8163007F0CDFCC2E762
:104EE000D8550020E9550020D0100020981000204F
:104EF0001E1D0400AA1D040070B5054636F000FB17
:104F00000446034601210420154A07F0B5FC022C93
:104F10000FD0032C20D0C4B90AF0B6FC01210346FF
:104F2000104A042007F0A8FC7DB101220E4B1A7034
:104F30000BE00D4E55B10EF089FF234601210420F0
:104F40000A4A07F099FC0123337070BD3570084898
:104F5000BDE8704033F0CABB0AF03EFBE5E700BF96
:104F6000E91D0400041E0400E7550020231E040070
:104F70004825040038B5114C114A237823B1137821
:104F80000133DBB2132B01D8137005E0002501209B
:104F90001570FFF7B1FF25700A4C0B4A237823B137
:104FA00013780133DBB2132B01D8137005E0002511
:104FB00001201570FFF7A0FF257038BDDD550020DA
:104FC000DC550020DF550020DE55002008B51B4AC7
:104FD00013780133DBB2182B0FD81370184A1378EB
:104FE0000133DBB2092B14D81370164A1388012B36
:104FF00084BF03F1FF33138008BD00231370FFF754
:10500000B9FF114B1B78012BE8D1104833F071FB2D
:10501000E4E700210E4B11700E4A1970137801332A
:10502000DBB2092BE0D9117001220B4B0B491A702E
:105030000B7813440B700A4B1A70D6E7E255002028
:10504000D7550020204D0020E755002048250400BA
:10505000E6550020EB550020E4550020E5550020E2
:10506000DA55002038B5194D194C2B7853B12378F7
:10507000B12B02D80020FFF73FFF23780133DBB2CA
:10508000B92B01D8237005E00023124823702B7040
:1050900033F029FB104C227832B910490B780133D8
:1050A000DBB2022B01D80B7038BD01200C4B0A700B
:1050B0001B6820709A70FFF7BDFE36F021FA0228B7
:1050C000F2D1BDE83840034833F010BBE75500206B
:1050D000EC55002048250400DB550020ED5500204C
:1050E0009810002037B50E4C34F0C9F82288AAB1C8
:1050F0000C4B1B68C11A914210D300250A4A0121AA
:1051000000930346042007F0B7FB2188074813F0FB
:1051100009FF258000F042FB054B1D7003B030BD38
:105120002E4D002020200020461E04006C1E04008E
:10513000E5550020012307B50A21084A00930848D5
:10514000002301F0BBF8FFF7AFFD00F09FFC142037
:1051500003B05DF804EB3AF0FCBA00BFCD4F00009D
:10516000841F002013B50D4A13780133DBB2182BCE
:1051700002D8137002B010BD0023012413700A215D
:10518000074A0094074801F099F821460420064A8E
:1051900002B0BDE8104007F06FBB00BFE65500202D
:1051A000CD4F0000841F0020791E0400034B1A78A5
:1051B0001AB100221A70FFF755BF7047E45500205E
:1051C00010B534F05CF80446FFF78CFF1D4A1368F5
:1051D000E31A092B34D91460FFF73CFEFFF7E6FF12
:1051E000194B1A88012A03D100221A8000F010FC02
:1051F000FFF7B8FF154B1A781AB100221A7000F0A9
:1052000007FC134C13482368DB787BB133F06BFA4F
:10521000236811481B7963B133F065FA23680F489E
:10522000DB794BB1BDE8104033F05DBA33F05EFA84
:10523000EEE733F05BFAF1E7BDE8104033F056BA21
:1052400010BD00BF1C200020204D0020EA5500208A
:1052500098100020602504009025040078250400A3
:105260002DE9F041ADF5027D06460C4636F048F9D1
:10527000022808D001210420284A0DF5027DBDE84E
:10528000F04107F0F9BA264B1B681B79022B36D088
:10529000244B1B78022B32D000214FF4FE7203A85E
:1052A00002913CF035FB68238DF808304123002142
:1052B0008DF80A30042023461B4A07F0DDFA032547
:1052C0000334DFF8708002AF013EA4B2A542294644
:1052D00019D10A220021154B1820CDE9007511F0D3
:1052E00007F90121C3B2124A042007F0C5FA0121CF
:1052F000084611F08FF90021084636F01BFE0DF527
:10530000027DBDE8F08116F8013F42467B5404203F
:1053100000210135ADB207F0AFFAD7E7881E0400CF
:10532000A4380020475F0020AF1E04005C43040047
:10533000BC1E0400B31E04007FB5002406460D46C3
:1053400002948DF80C4036F0DBF8022806D00121DB
:1053500004201B4A07F090FA04B070BD194B1B687B
:105360001B79022BF8D0184B1B78022BF4D010239A
:105370008DF80B5004258DF80A3002AB00930A22F9
:105380000621124B019518208DF808408DF8094030
:1053900011F0AEF80E4AC3B20121284607F06CFAAC
:1053A0003046012111F036F92146204636F0C2FD83
:1053B00001210346074A284607F05EFACCE700BF02
:1053C000E21E0400A4380020475F00205C43040074
:1053D0000F1F04004F1F040010B5044603460121AF
:1053E00004201A4A07F048FA912C0CD1012104201C
:1053F000174A07F041FA0120FFF77EFDBDE8104093
:10540000144833F070B9902C1ED1124833F06EF965
:10541000FF21114805F060FF002121F085FF00F019
:1054200035FB31F0B3FEBDE810404FF4FA7390FB4A
:10543000F3F202FB1303094ADBB2043313800121A8
:105440000420074A07F018BA10BD00BF721F0400FD
:10545000971F040048250400FC1F0020204D002059
:10546000D01F0400FF2310B50D4C1A4620460D49ED
:1054700005F0F2FEFF230C491A460C4805F0ECFE3D
:10548000FF230B491A460B4805F0E6FEFF21204694
:1054900005F022FFBDE81040002121F045BF00BF0C
:1054A000DC1F00204D4C0000154C0000FC1F0020AC
:1054B000F94B0000BC1F0020034601210420014AD3
:1054C00007F0DAB90A200400F7B5DFF8F0C0374D6D
:1054D0009CF800C007462870BCF1000F64D0062974
:1054E00062D1002A60D1402B5ED10126304C00965B
:1054F000234636F00BFD002856D104203146237890
:105500002C4A009707F0B8F92878B04210D12A4EFB
:105510003368DA7823789A4201D0FFF78BFC217840
:105520003368D970287803B0BDE8F040FFF704BFB6
:1055300002280CD1204F3B681A7923789A4202D076
:105540003046FFF777FC21783B681971EAE70328BA
:105550000CD1194F3B685A7923789A4202D03046D1
:10556000FFF768FC21783B685971DBE704280CD110
:10557000114E33689A7923789A4202D00120FFF7BE
:1055800059FC217833689971CCE710280CD10A4E68
:105590003368DA7923789A4202D00120FFF74AFC77
:1055A00021783368D971BDE703B0F0BDD95500202B
:1055B000E85500202820040098100020E355002022
:1055C0001FB50446034601210420074A07F054F999
:1055D0000022402306212046CDE90222CDE9002207
:1055E000FFF772FF04B010BD5120040008B501217F
:1055F0000420034A07F040F9BDE8084020F0A8BBAA
:105600008B20040038B5424B04461D68854223D1E7
:1056100032F0E7FFC0B93F4B1A78E2B13E4C187048
:1056200022680121D378042083F00103D3703B4A20
:1056300007F022F901202368D978FFF77DFEBDE845
:1056400038400120FFF7F6BB284632F0CAFF012898
:1056500001D1304B187038BD5D6885421DD132F0E4
:10566000C0FF98B92E4B1A78002AF4D02A4C187033
:10567000226801211379042083F001031371294A60
:1056800007F0FAF8236802201979D6E7284632F0A5
:10569000A8FF0128DFD1224BDCE79A6882421BD1A8
:1056A00032F09FFF98B9204B1A78002AD3D01A4CB9
:1056B0001870226801215379042083F0010353718B
:1056C0001A4A07F0D9F8236803205979B5E720462C
:1056D000BDE8384032F085BFDB688342BBD132F091
:1056E00080FF0028F3D1124B1A78002AB3D00A4C5D
:1056F0001870226801219379042083F001039371CB
:105700000C4A07F0B9F823680420997995E700BF9F
:10571000A8100020DD55002098100020B2200400C1
:10572000DF550020C7200400E0550020DC200400E5
:10573000E1550020F220040070B505460C4635F016
:10574000DFFE022804D10E48BDE8704013F0EABB2A
:105750000C4B1B780BB10C48F6E70C4B1B780BB1CC
:105760000B48F1E755B9552C08D1BDE87040094BFD
:10577000012104201B78084A07F07EB870BD00BFE5
:1057800008210400E755002023210400DA550020F9
:105790003B210400D65500204D21040007B50B4BDA
:1057A0000B4A18689B880090ADF80430137868465F
:1057B000591C8DF802304423117006218DF80530F4
:1057C000FFF74EFD03B05DF804FB00BFF5230400B6
:1057D000EF550020F0B5ADF5017D07460E461546A4
:1057E00000214FF4FE7201A81C463CF091F8FF2303
:1057F0000F4A8DF8003013788DF80170591C8DF820
:105800000230012311708DF803308DF8056034B13A
:105810002DB1224629460DF106003CF052F8A11D9B
:10582000684689B2FFF71CFD0DF5017DF0BD00BF94
:10583000EF5500200A8830B4531C0B800123835499
:105840000A88D4180C8083540A88D4180C80835496
:105850000B885A1C0A800022C2540A88054B551C2A
:105860001C680D80E17881541B680348D97830BCEE
:1058700013F058BB98100020622104000B8830B44C
:105880005A1C0A800222C2540B885A1C0A80012228
:10589000C2540B889C180C80C2540B889A180A803A
:1058A0000022C2540A88064B551C1C680D802179C1
:1058B00081541B680348197930BC13F033BB00BF17
:1058C00098100020762104000B8830B45A1C0A80FE
:1058D0000322C2540B885A1C0A800122C2540B882E
:1058E0009C180C80C2540B889A180A800022C2545B
:1058F0000A88064B551C1C680D80617981541B6811
:105900000348597930BC13F00DBB00BF981000203C
:105910008A2104000B8830B45A1C0A800422C25425
:105920000B885A1C0A800122C2540B889C180C80D8
:10593000C2540B889A180A800022C2540A88064B67
:10594000551C1C680D80A17981541B680348997906
:1059500030BC13F0E7BA00BF981000209E2104006D
:105960000B8830B45A1C0A801022C2540B885A1C6F
:105970000A800122C2540B889C180C80C2540B88E8
:105980009A180A800022C2540A88064B551C1C68CB
:105990000D80E17981541B680348D97930BC13F03C
:1059A000C1BA00BF98100020B221040010B5002435
:1059B000ADF5047D4FF4FE72214605A804943BF03A
:1059C000A7FFADF80E4003240DF10E0104A8FFF768
:1059D00031FF0DF10E0104A8FFF750FF0DF10E018C
:1059E00004A8FFF7BDFFBDF80E3001210420074ACF
:1059F000009406F041FF21460620BDF80E3004AAAF
:105A0000FFF7E8FE0DF5047D10BD00BFCB210400BB
:105A100008B535F075FD022806D0BDE80840012123
:105A20000420034A06F028BFBDE80840FFF7BEBFC8
:105A3000EF21040070B50D4600211446ADF5007D40
:105A400006464FF4FE7201A800913BF061FFFF2370
:105A5000052C38BF05240C4A8DF8003013780DF161
:105A60000500591C1170621F92B2691D8DF8023039
:105A70008DF801603BF025FF21466846FFF7F0FBFB
:105A80000DF5007D70BD00BFEF55002007B535F066
:105A900033FD019031F04CFB01210420019B034AAE
:105AA00003B05DF804EB06F0E7BE00BF1D22040062
:105AB0002DE9F04F00260546ADF50B7D89464FF4E4
:105AC000FE7231460BA80A963BF022FF6C78ADF8C7
:105AD0002660022C00F0C180042C5FD0012C40F025
:105AE0004681A54813F01EFAA44B1A7822B91C70FF
:105AF000FFF7CCFFFFF78CFF6E7A95F80AB095F8A8
:105B00000B802F7BD5F8059035F0F6FC0446334624
:105B100001219B4A0090CDE90178042006F0ACFEFB
:105B2000B4FBF6FA06FB1A4A012153460420954AB3
:105B3000CDF800B006F0A0FEDA4511D131F026FB19
:105B400008F1010390FBF3F202FB130313FB07F3CD
:105B5000DFF864A29BB2AAF8003093B9FFF71EFEEB
:105B600095F90D300121CDE9039304203346CDE9A9
:105B70000178854A009406F07FFE0DF50B7DBDE8A7
:105B8000F08F33F07CFB814B012118600090BAF854
:105B9000003004207E4A06F06FFEE1E706247D48CF
:105BA00013F0C0F9DFF8148295F805A0DFF810B201
:105BB000F3B2534508D34A4629460620FFF73AFF79
:105BC0000120FFF737F9D8E7A31CDAB255FA83F3BF
:105BD0005878AB5C621C295DD2B243EA0023CDE960
:105BE000006AAA5C6C48079113F09CF90799271D7D
:105BF0000429FFB209D851B105340239E4B20229AF
:105C000008D8DFE801F010161C0010291DD03C4612
:105C10000136CDE7E95DD8F800306048D97013F05F
:105C200081F92746F3E7E95DD8F800305C4819713F
:105C3000F5E7E95DD8F800305A485971EFE7E95DBA
:105C4000D8F8003058489971E9E7E95DD8F8003094
:105C500005345846E4B2D971E1E795F80590B9F1F9
:105C6000000F7CD10DF126010AA8FFF7E3FD0DF12D
:105C700026010AA8FFF702FE0DF126010AA8FFF788
:105C80006FFE0324BDF8263001210420474A06F0A8
:105C9000F3FD21460620BDF826300AAAFFF79AFD3B
:105CA0006BE7102F3DD0FF2F47D00136F2B2931D86
:105CB0004A45DBB2E6D2EF5C5046394613F032F982
:105CC000042FEED8002FF0D0023F01340DF1260151
:105CD0000AA8022F03D8DFE807F00C141C00FFF716
:105CE000A9FDD8F800303248D978E4B213F01AF997
:105CF000DBE7FFF7C3FDD8F8003029481979E4B293
:105D0000F4E7FFF7E1FDD8F8003026485979E4B20E
:105D1000ECE7FFF7FFFDD8F8003023489979E4B2AB
:105D2000E4E70DF126010AA8FFF71AFED8F80030C3
:105D300001345846D979E4B2D8E70DF126010AA812
:105D4000FFF778FD0DF126010AA8FFF797FD033450
:105D50000DF126010AA8FFF703FEE4B2A5E73446D9
:105D6000DFF860A0DFF85480DFF854B09EE72146EA
:105D7000104813F0D7F800E731220400EE55002058
:105D80004522040075220400CA22040020200020BD
:105D9000A02204000D2304002B2304005D23040033
:105DA0006A2304007823040086230400BC23040033
:105DB000AE230400DC2304002E4D002098100020A8
:105DC00094230400A323040010B51E4C32F019FDE7
:105DD000236F23F0070343F00203236732F018FD1B
:105DE000D4F82031002023F0070343F00103C4F866
:105DF0002031D4F8403123F0030343F00103C4F809
:105E00004031D4F8603123F0030343F00103C4F8B8
:105E10006031D4F8403223F0030343F00103C4F8A7
:105E20004032D4F8003223F0070343F00103C4F8F2
:105E30000032D4F8083223F0070343F00103C4F81A
:105E4000083210BD0080005007B501A802F0FEF82E
:105E50009DF80530012B27D1214A936DDB0313D424
:105E6000536B23F4FF0323F4FE4343F4BC1343F4C6
:105E7000A0635363136B23F4704343F440431363F1
:105E8000136B43F4E06313639DF8043063B94FF080
:105E900000531B68134B1B68134B1B68134B1B6889
:105EA000134B1B68134B1B68134AD2F8803043F026
:105EB0000303C2F8803002F0F3FC02F0AFFC02F002
:105EC000B5FCFFF781FF02F097FC00F013FD03F033
:105ED0003DF801F005FA03B05DF804EB03F09EBF56
:105EE00000C00050004000200080002000C00020C2
:105EF00000000120004001200080005030B5184D06
:105F000095B00DAC0FCD0FC495E8070084E80700ED
:105F100001240021134B144A09A8CDE903231022C0
:105F2000CDE905413BF0F4FC4FF480210F4B0DAA65
:105F3000CDE907130B238DF824300C238DF8253081
:105F40000B4B07A90A9320230B930A4B0A48009393
:105F500003AB8DF8314002F01BFF15B030BD00BF20
:105F6000CC24040021030002008005502480055049
:105F7000F0550020242000207C200020831E012BCF
:105F800010B513D8012911D8124B0422D3F8A03030
:105F90000021032003F0010301F0C8FE0E4B1B6833
:105FA0001868B0B1BDE81040436A18478B1E012B3A
:105FB0000DD801280DD8BDE810400022054B114630
:105FC000D3F8A030032003F0010301F0AFBE012994
:105FD000E4D910BD00C00350A410002008B5044946
:105FE000044803F0C5FFBDE80840FFF787BF00BFC6
:105FF0009C10002074200020014833F0F1B800BF4D
:106000007C200020014B1A6A186810477C20002071
:1060100008B515F00FF80022014B1A7008BD00BF3B
:106020001056002008B5044832F0D6FABDE8084002
:10603000024832F0D1BA00BFE82404000025040071
:1060400008B5074832F04CFB064832F049FB0648D9
:1060500032F046FBBDE80840044832F041BB00BFC7
:1060600048250400602504007825040090250400DC
:106070000A46014931F052BF882604000A46014908
:1060800031F04CBF9A2604000A46014931F046BF60
:106090007E2604000A46014931F040BF4B26040029
:1060A0000A46014931F03ABF832604000A460149F5
:1060B00031F034BFB12504000A46014931F02EBF4A
:1060C0000E2604000A46014931F028BF6726040065
:1060D0000A46014931F022BF502604000A46014910
:1060E00031F01CBFBE2504000A46014931F016BF3D
:1060F000C72504000A46014931F010BF7726040085
:106100000A46014931F00ABF6C2604000A460149DB
:1061100031F004BF1D2604000A46014931F0FEBEDD
:10612000282604000A46014931F0F8BEA8250400DB
:106130000A46014931F0F2BE032604000A4601492D
:1061400031F0ECBE482604000A46014931F0E6BEB3
:10615000452604000A46014931F0E0BE422604000B
:106160000A46014931F0DABEBF2604000A46014959
:1061700031F0D4BEB52604000A46014931F0CEBE46
:10618000332604000A46014931F0C8BE382604000F
:106190000A46014931F0C2BEDB2504000A46014926
:1061A00031F0BCBED02504000A46014931F0B6BE2C
:1061B000CC2604000A46014931F0B0BEC2260400D4
:1061C0000A46014931F0AABEC72604000A46014921
:1061D00031F0A4BEB02604000A46014931F09EBE4B
:1061E0008F2604000A46014931F098BEA526040016
:1061F0000A46014931F092BEB82604000A46014918
:1062000031F08CBED42604000A46014931F086BE26
:10621000D12604000A46014931F080BEEF25040072
:106220000A46014931F07ABE622604000A46014955
:1062300031F074BE592604000A46014931F06EBEA1
:10624000FA2504000A46014931F068BE3D260400E3
:106250000A46014931F062BEE425040000220949E2
:106260000B684BB1834204D1836A4AB19362012027
:1062700070471A469B6AF4E70028F5D01846704725
:106280000B60F4E7A020002010B5044690B104F0A4
:106290000DFA2046FFF7E2FF58B194F82C0040B108
:1062A00032F0CFFA044A1368013B136032F0CFFAA0
:1062B000002010BD2220FCE7A42000202DE9F04F93
:1062C00085B00546914698460E469DF8387009B946
:1062D000002F62D12846FFF7D7FF044600283CD1A3
:1062E00085F82C00686304F0E5FA864239D904F099
:1062F00081FA40F2E7318C462146E6FB00C14FF4BB
:106300007A726046002330F053FC4FF0FF320023D6
:1063100083468A4630F04CFC4FF0FF32E88600237B
:106320005846514630F044FC2B4611462846CDE9EC
:1063300000441B4A33F09FF8044670B9194AC5E976
:106340000898136885F82D702E6323B31A469B6A4C
:10635000002BFBD195620023AB62204605B0BDE85F
:10636000F08F47B12B4631462846CDE900440C4A10
:1063700004F064FAE0E7304603A904F041FA044669
:106380000028EAD12B462846CDE90077044A039934
:1063900033F04DF8D0E71560DDE72124DDE700BFDD
:1063A000A9630000A020002091F82C3013B50C4602
:1063B00083B98B8ECA8E93420ED243B9CDE9003396
:1063C00020460B46104A4FF0FF3133F014F8A38EED
:1063D0000133A38602B010BD52B191F82D307BB1CC
:1063E00001230093D1E908232046096BFFF766FFDC
:1063F0000123064A84F82C30136801331360E9E75F
:10640000084604F053F9F3E7A9630000A420002034
:1064100070B5104D2B681BB100260F4B1C6804B9DA
:1064200070BD94F82C3093B132F00BFA2B6884F8DD
:106430002C60013B2B6032F00AFA94F82D3013B92E
:106440002046FFF70BFFD4E9083120469847A46A9D
:10645000E5E700BFA4200020A0200020034B1B681C
:10646000002B0CBF01200420704700BFA420002097
:10647000024B1868B0FA80F040097047A420002051
:1064800008B500F02DF8124B12498B4212D30020B0
:10649000114B12498B4218D3FEF774FB186850F861
:1064A0002240586840F82240013298688242F5D371
:1064B0000C33EAE70022F8E71C6844F822000132B6
:1064C0005C68A242F8D30833E4E70022F8E700BF93
:1064D000E4A50400F0A50400F0A50400F0A5040064
:1064E0006FF00100104B114A10B59A60D3F8882064
:1064F0000F4942F47002C3F8882001F5005210667B
:1065000041F2FF7050660220C3F8D000BFF34F8FF6
:10651000BFF36F8F08244FF440330648C0F8804122
:10652000D36004600B6110BD00ED00E0004000008E
:106530000080004400E100E0014B1868704700BF94
:10654000BC100020014B1860704700BFBC10002039
:10655000084B1B6F03F00703022B04D0032B05D05D
:10656000012B05D0FEE7044B18687047034BFBE78F
:106570000348704700800050BC100020C01000206D
:10658000002D310108B5FFF7E3FF054B1B6FC3F387
:1065900001330133B0FBF3F0024B186008BD00BFBC
:1065A00000800050B81000200048704700B4C404B8
:1065B000014B1868704700BFC0100020054B1860E1
:1065C000054B1B6F03F00703032B01D1FFF7DABF65
:1065D000704700BFC0100020008000500048704786
:1065E000002D3101174B9868C0F304400C2822D8C5
:1065F000DFE800F0092121212121071719211B1DA6
:106600001F00114870479B6803F04073B3F1807F0F
:1066100013D0B3F1007F12D00C4A002B08BF1046F4
:1066200070470B4870470B4870470B4870470B4842
:1066300070470B487047002070470A4870470A4867
:10664000704700BF0040015A405DC60000093D0090
:106650000024F400C0EA210180BA8C010048E8015E
:10666000005A620280841E0040420F00014B1868ED
:10667000704700BFC4100020BFF34F8F0549064B81
:10668000CA6802F4E0621343CB60BFF34F8F00BFD0
:10669000FDE700BF00ED00E00400FA0500239B6A5F
:1066A000B3F5804F03D21968064A914203D0002304
:1066B000037083607047012202709A689B69426090
:1066C000F7E700BF07B0CD5E08B54FF00053024AB0
:1066D0001A60FFF7D1FF00BF02020FF073B5494BFC
:1066E00004461A781AB102221A7002B070BDCDE9C0
:1066F00000220028F9D001261E7032F0A2F8424D87
:10670000424B186017F0F2F92B785BB900F0E8FD06
:1067100040B93F4808233F4A3F49006813F06AFEEA
:1067200000B92E703D4B5A68E2603D4A9A601A6E7D
:1067300022605A6E6260D3F87021A2601B6E5C0406
:1067400040D5384AD368D807FCD4374B1A68531C55
:106750003DD04FF480139340344A13660423334CE6
:1067600023664FF48063236631F006FF01300ED0BC
:1067700031F002FF40F20113984208D04FF48043F9
:1067800023664FF4004323661023C4F870311023AE
:10679000264C4FF0804223664FF400536846236630
:1067A00001A92266636631F0CCFE009B2366019B43
:1067B00063662B78002B98D0164B1A6822665B68AC
:1067C000636692E71A4AD368D907FCD4BDE7194B30
:1067D0001B78002BC2D1184B5A68144B12B94FF4D6
:1067E00080121A66154A526812B94FF400121A66DE
:1067F000134B5B68002BB1D14FF480020B4B1A6630
:10680000ACE700BF1356002011560020C020002026
:10681000D0100020B8200020007108000080004443
:1068200055CEAC0000000440C81000200090004489
:1068300000000450125600200080055000C0055092
:106840000000065038B5224D04462B78012B02D0AB
:1068500001232B7038BD0028FCD031F08DFE0130B3
:1068600009D031F089FE40F20113984203D0194A51
:10687000D368DB07FCD42268174B1A6662685A6635
:10688000A268C3F87021E268D40744BF00229A606E
:10689000124B1A68013213D1114A127882B9114988
:1068A0004968C80748BF1A600F4A5268D10744BFF9
:1068B00001221A600D4A5268D20744BF02221A60B0
:1068C00017F01CF90A4B186831F0C1FF0023C0E72C
:1068D000135600200000044000800044C81000202F
:1068E000125600200080055000C0055000000650E0
:1068F000C020002070B50024A36AB3F5804F22D2D7
:106900001A68124B9A421ED1114E337813F0FD05CE
:1069100017D11048FFF7E2FE08214FF480330E4AEA
:106920000E48C2F88011C36011600D4A1361AB6A52
:10693000DB69984704460748FFF784FF0CB9012339
:106940003370204670BD4FF48174FAE707B0CD5E16
:1069500012560020A820002000E100E000A0004422
:106960000090004413B51F4B1B7803B9FEE70023CA
:106970001D4CCDE900336A4608231C49206813F0FA
:1069800039FDF0B91A4AD2F84031D2F840211F2B14
:106990004FF0010310D9203A9340019A1343019319
:1069A00008236A461149206813F0DAFC4FF00053BF
:1069B000104A1A60FFF760FE9340009A1343009359
:1069C000EEE70D4B9842F1D1094AD2F84031D2F8A6
:1069D00040211F2B4FF0010302D9203A9340DEE7FC
:1069E0009340ECE713560020D010002000710800FF
:1069F000008000440B020FF00BE000F038B50025DA
:106A0000AB6A0446B3F5804F10D21B6BB3F5804FD1
:106A10000CD20748FFF762FEAB6A20461B6B5B682F
:106A20009847BDE838400248FFF70CBF38BD00BFAB
:106A3000C420002037B50025AB6A0446B3F5804F6B
:106A4000019113D21B6BB3F5804F0FD20948FFF7AA
:106A500045FEAB6A20461B6B01999B69984704462B
:106A60000448FFF7EFFE204603B030BD4FF48174B9
:106A7000F9E700BFC420002037B50025AB6A044603
:106A8000B3F5804FCDE9002112D21B6B83B10A48C8
:106A9000FFF724FEDDE90021AB6A20461B6B5B6A31
:106AA000984704460448FFF7CDFE204603B030BDAA
:106AB0004FF40174F9E700BFC420002037B500256A
:106AC000AB6A0446B3F5804F019113D21B6BB3F54B
:106AD000804F0FD20948FFF701FEAB6A20461B6BBF
:106AE00001999B6A984704460448FFF7ABFE20468D
:106AF00003B030BD4FF40174F9E700BFC42000209B
:106B000010B50024A36AB3F5804F10D21B6BB3F508
:106B1000804F0CD20748FFF7E1FDA36A1B6B1B6B8C
:106B2000984704460348FFF78DFE204610BD012418
:106B3000FBE700BFC420002037B50025AB6A044640
:106B4000B3F5804FCDE9002114D21B6BB3F5804F14
:106B500010D20A48FFF7C2FDDDE90021AB6A2046EA
:106B60001B6B5B6B984704460448FFF76BFE20469F
:106B700003B030BD40F20114F9E700BFC42000208B
:106B800037B50025AB6A0446B3F5804FCDE9002147
:106B900014D21B6BB3F5804F10D20A48FFF79EFD4D
:106BA000DDE90021AB6A20461B6B9B6B98470446CE
:106BB0000448FFF747FE204603B030BD40F2011401
:106BC000F9E700BFC420002037B50025AB6A0446B2
:106BD000B3F5804F019113D21B6BB3F5804F0FD2E9
:106BE0000948FFF77BFDAB6A20461B6B0199DB6B05
:106BF000984704460448FFF725FE204603B030BD01
:106C000040F20114F9E700BFC420002005490A68DA
:106C10001318054883428CBF4FF0FF320B601046BB
:106C2000704700BFCC1000200000012037B5046879
:106C30000023012261790546207901F077F81422BA
:106C40003023217913FB012303F1A04303F57033B3
:106C50001B686279D340DB4303F001032370A379FF
:106C6000022B0ED100F0C6FA2A460749607900F0DF
:106C7000EBFA0123024661792079CDE9003301F076
:106C800011F8002003B030BDED8503004FF06043E4
:106C9000D3F8802E30B5D20715D501240B4D844092
:106CA000D5F8FC2042F08072C5F8FC20D3F8002E05
:106CB0002243C3F8002E53F82020002AF0D003F816
:106CC0002010002030BD1120FCE700BF00ED00E0E7
:106CD00010B5012243780178847830209A40054B22
:106CE00000FB01331CB942F210015A5010BD41F2B1
:106CF0001001FAE700C0035010B501224378017873
:106D0000847830209A40054B00FB01331CB941F2D6
:106D100010015A5010BD42F21001FAE700C00350B2
:106D20002DE9F04F9A46564B85B01B7806460F4624
:106D30001546DDF83C909DF844B0DDF85080002BFE
:106D400000F08D80072A00F28C800E9B002B00F053
:106D50008880B9F1000F00F08480129BB3F5006FBA
:106D60007FDC012802D1109B002B7AD0454B03EB2E
:106D700005131B7B002B76D0434C10220021684664
:106D80003AF0C6FD04EB45141022002F59D13946C4
:106D900020463AF0BDFD43F210036380BBF1000FC3
:106DA00003D1E37843F00303E370374A0E9B02EB11
:106DB000451CCCE90193129B6901013BC3F30A0016
:106DC0009DF84C30012E03F003034FEA836343EA3E
:106DD000001E53582D48CDF800A000EA03004EEAEB
:106DE0000003535041D113230CF1100ECCF80C309A
:106DF0009CE80F008EE80F006FF00301DCF81C2008
:106E0000109B61F39F02012FCCF81C20CCF81430AA
:106E100003D1CCF81890CCF804300027194A290186
:106E200002EB051342F80180159A28465A6069461C
:106E300022469F605E7301F007F8384605B0BDE852
:106E4000F08F002120463AF063FD4FF444736380D5
:106E5000BBF1000FA9D1E37843F03003A4E70C485D
:106E6000ECE70C48EAE70C48E8E7B8F1000FD4D1AA
:106E70009CF8023068F304138CF80230CDE700BFB1
:106E800014560020D4200020542100200F80FFF34E
:106E9000028000F0018000F0078000F038B5124B4E
:106EA00005461B78DBB1E0B131F0CBFC0F4A002383
:106EB0001146147B54B92B6001251A0101EB031311
:106EC0001D738C5031F0C3FC204638BD0133082BB4
:106ED00002F11002EDD131F0BAFC0548F5E70548A2
:106EE000F3E70548F1E700BF14560020D420002046
:106EF000048000F0028000F0018000F013B531F052
:106F0000A0FC00230B4A147B7CB90133082B02F14F
:106F10001002F8D1019000F04BFF074B01981C7054
:106F200031F095FC204602B010BD31F090FC0348D2
:106F3000F9E700BFD420002014560020058000F09F
:106F40000D4B10B51B78044693B1072812D831F0C9
:106F500078FC0A4B03EB04131A7B2AB100241C7340
:106F600031F075FC204610BD31F071FC0448FAE7A1
:106F70000448F8E70448F6E714560020D42000201F
:106F8000068000F0028000F0018000F0154B13B580
:106F90001868002301908DF8043031F052FC124B38
:106FA0001C7824B131F053FC104802B010BD01220E
:106FB0001A7031F04CFC0E4B01A81C731C7783F83F
:106FC0002C4083F83C4083F84C4083F85C4083F8C5
:106FD0006C4083F87C4008238DF8073000F00AFFEE
:106FE0002046E2E72827040014560020038000F022
:106FF000D42000200A4A08B512785AB107280BD8C5
:10700000084A02EB00131B7B43B1002100F0E4FEB1
:10701000002008BD0448FCE70448FAE70448F8E704
:1070200014560020D4200020028000F0018000F0DF
:10703000078000F00A4A08B512785AB107280BD821
:10704000084A02EB00131B7B43B1012100F0C4FE90
:10705000002008BD0448FCE70448FAE70448F8E7C4
:1070600014560020D4200020028000F0018000F09F
:10707000078000F00A4A08B5127852B107280AD8EA
:10708000084A02EB00131B7B3BB100F02BFF0020F2
:1070900008BD0548FCE70548FAE70548F8E700BFE2
:1070A00014560020D4200020028000F0018000F05F
:1070B000078000F00D4B1B7893B1072812D889B1D7
:1070C0000B4B03EB00131B7B73B10A4B1A6D0123AF
:1070D00003FA00F010401ABF00200B7008707047D0
:1070E000054870470548704705487047145600200A
:1070F000D420002000000450028000F0018000F045
:10710000078000F00B4A10B512780C4662B10728D0
:107110000CD859B1084A02EB00131B7B43B100F0B5
:10712000F3FE2070002010BD0448FCE70448FAE795
:107130000448F8E714560020D4200020028000F014
:10714000018000F0078000F02DE9F843174B1F6D18
:107150005B6D1F4000D5FEE701260025144CDFF8CB
:107160005480DFF85490374217D02368C8F8506035
:107170009BB1A168284601316268A1609847637B92
:10718000012B0AD148B909EB45131A7B60F3410280
:107190001A731A7F60F341021A770135082D4FEAFE
:1071A000460604F11004DED1BDE8F8830000045067
:1071B000D4200020002004505421002070B5044643
:1071C00001250B4E04B970BD94FAA4F0B0FA80F01A
:1071D00005FA00F306EB001224EA03045368002BBF
:1071E000F0D0117B11B191689847EBE79847E9E738
:1071F0005422002008B5192000F010FD28B14FF0EE
:107200000072074BC3F880211A601A2000F006FDB7
:1072100028B14FF08062024BC3F880211A6008BD8C
:1072200000E100E038B505460C4631F00AFB0022CB
:10723000044B03EB05135C601A73BDE8384031F072
:1072400006BB00BF54220020F8B505460F4616467F
:1072500031F0F7FA104B05F0FC02D3F824140023A8
:10726000EC1804F00304144321FA04FC1CF0010F91
:1072700007D00133042BF3D1FF2431F0E8FA204684
:10728000F8BDFF2CF9D00122044B03EB0413C3E932
:1072900001761A73F1E700BF00C0035054220020AA
:1072A000064BD3F82404D3F8202403F500531040F0
:1072B00000F05530C3F82004FFF780BF00C0035032
:1072C000064BD3F82404D3F8202403F500531040D0
:1072D00000F0AA30C3F82004FFF770BF00C00350CD
:1072E000024B1968024B186812F064BFD4100020DA
:1072F000D010002037B5920004460D4601923AF0B6
:10730000BBFC431C0BD060B929462046019A3AF0D9
:10731000C8FA0028044808BF002003B030BD034865
:10732000FBE70348F9E700BF10E000F021E000F0C0
:1073300024E000F010B504463AF0A6FC431C10D03F
:1073400088B900F091FE234620F0030020449842C3
:1073500001D1002010BD53F8042B0132F7D00348AF
:10736000F8E70348F6E70348F4E700BF0EE000F053
:1073700021E000F024E000F008B531F053FA014BB1
:10738000186008BD942A0020014B186831F04EBAED
:10739000942A002041F6713310B5104C104AA042D7
:1073A0008CBF4FF480140024D169D363936801F437
:1073B000803123F44013234393600A4B98420A4BD5
:1073C000D3F818228CBF42F0020222F00202C3F866
:1073D000182211B10022024BDA6310BD005A62027A
:1073E0000000035080F0FA0200C007502E4B984274
:1073F0004AD022D82D4B984240D014D82C4B9842DA
:1074000039D00AD82B4B984232D02B4B98422FD0F0
:107410002A4B98422CD000207047294B9842FAD131
:10742000284B186F7047284B98422AD0274B984218
:10743000F1D1244BD3F880007047254B98422BD0D4
:1074400009D8244B984223D0234B9842E3D11D4BBB
:10745000D3F88C007047214B984221D003F5740378
:1074600003F510539842D6D1164BD3F898007047C5
:10747000144B986D7047134B586E7047114B586FF3
:107480007047104B986F70470E4BD3F884007047CD
:107490000C4BD3F8880070470A4BD3F89000704724
:1074A000084BD3F8940070470048E8010024F4002A
:1074B000C0CF6A0080841E0000093D0040420F00DA
:1074C000405DC6000080E00FC0EA210180BA8C0157
:1074D000007E560380D54302006CDC020090D0038E
:1074E00038B5134B0546D3F820010C4600F00700D1
:1074F000042804D8DFE800F01A0A0E121600002350
:10750000184605B1286004B1236038BDFFF714F8B0
:107510000423F6E7FFF74CF80323F2E7FFF762F8DE
:107520000523EEE7FFF75AF80223EAE70123E8E72D
:107530000080005037B50C460021124A0191D2F864
:107540008021054602F00302022A0ED0032A11D040
:10755000012A14D101A8FFF7C3FF0D230DB1019A31
:107560002A6004B1236003B030BDFFF73BF8052368
:107570000190F3E7FFF732F802230190EEE70B46A4
:10758000ECE700BF0080005038B5104B0546D3F83B
:1075900040310C4603F00303022B0BD0032B0DD01C
:1075A000012B0FD130F0C7FF082305B1286004B1CB
:1075B000236038BDFFF75AF80723F6E730F0BEFF27
:1075C0000923F2E701230020EFE700BF008000500D
:1075D00038B5104B0546D3F860310C4603F0030371
:1075E000022B0BD0032B0DD0012B0FD130F0A3FFBA
:1075F000082305B1286004B1236038BDFFF736F8D1
:107600000723F6E730F09AFF0923F2E70123002071
:10761000EFE700BF0080005038B5144B0546D3F8A3
:1076200000020C4600F00700042804D8DFE800F050
:107630001B0A0E1216000023184605B1286004B17B
:10764000236038BD30F077FF0823F6E7FFF70EF828
:107650000723F2E730F072FF0923EEE7FEF792FF0F
:107660000C23800AE9E70123E7E700BF0080005010
:1076700038B5144B0546D3F808020C4600F0070055
:10768000042804D8DFE800F01B0A0E1216000023BD
:10769000184605B1286004B1236038BD30F04BFFB7
:1076A0000823F6E7FEF7E2FF0723F2E730F046FF94
:1076B0000923EEE7FEF766FF0C23800AE9E70123C2
:1076C000E7E700BF0080005038B5104B0546D3F8FF
:1076D00040320C4603F00303022B0BD0032B0DD0DA
:1076E000012B0FD130F027FF082305B1286004B12A
:1076F000236038BDFEF7BAFF0723F6E730F01EFF20
:107700000923F2E700231846EFE700BF008000508E
:1077100038B5104B0546D3F800310C4603F003038F
:10772000022B0BD0032B0DD0012B0FD1FEF740FF06
:10773000032305B1286004B1236038BDFEF796FF2E
:107740000723F6E730F0F5FE0623F2E701230020D9
:10775000EFE700BF00800050032814D005D80128AF
:1077600005D0022809D0002005E00F28FBD1084BE6
:10777000186FC0F3013001307047054BD3F890000B
:10778000C0F30460F7E7024B186FC0F38020F2E704
:10779000008000501FB500230193252817D8DFE88B
:1077A00000F0131A1D262B353A50555A5F6469773D
:1077B000161A3F1616551A262B26351A5026773AD2
:1077C0003A3A3A2626265A5FFEF7C2FE0190019801
:1077D00005B05DF804FBFEF7D5FEF7E7FEF7B8FE4F
:1077E00002460220FFF7B8FFB2FBF0F0EEE7FEF72B
:1077F000C9FE02460320F5E7FEF7C4FE0246032059
:10780000FFF7AAFFB2FBF0F04008DFE7002101A874
:10781000FFF790FEDBE7002101A8FFF761FED6E746
:1078200002934FF0E0231B695B0705D5FEF7AAFE24
:107830000290029B0193CAE703A902A8FFF7A4FEE6
:10784000F7E7002101A8FFF79FFEC0E7002101A88C
:10785000FFF7BEFEBBE7002101A8FFF7DDFEB6E79C
:10786000002101A8FFF704FFB1E7002101A8FFF7FD
:107870004FFFACE7094BD3F8803003F00303022B32
:10788000A9D0032B01D00020A0E7FEF7ABFE9DE7B7
:10789000002101A8FFF718FF99E700BF0080005002
:1078A00008B50120FFF776FFBDE80840034988428C
:1078B0008CBF02210121032000F002B880F0FA02FF
:1078C000032810B50C4627D004D8012804D002287C
:1078D00017D010BD0F28FCD130F087FF30F08DFF9E
:1078E000124B013C196F21F4405141EA04341C67EA
:1078F000FEF748FE0021FFF74DFDBDE81040FFF701
:10790000CFBF0A4B013CD3F8901021F0F85141EA67
:107910000464C3F89040DCE7044B013C196F21F488
:10792000806141EA84241C67D3E700BF00800050D7
:107930001FB500230193252821D8DFE800F013208C
:107940002020202A2F454A4F54595E712020342090
:10795000204A202020202A204520712F2F2F2F2041
:1079600020204F54314B1B6F03F00703013B032BC7
:1079700005D8DFE803F00C02080A042301930198FC
:1079800005B05DF804FB0323F8E70623F6E70223BE
:10799000F4E7002001A9FFF7CDFDF0E7002001A9E1
:1079A000FFF79EFDEBE702934FF0E0231B695B07B7
:1079B00005D5FEF7E7FD0B230393039BDEE703A941
:1079C00002A8FFF7E1FDF8E7002001A9FFF7DCFDC1
:1079D000D5E7002001A9FFF7FBFDD0E7002001A9B2
:1079E000FFF71AFECBE7002001A9FFF741FEC6E72B
:1079F000002001A9FFF78CFEC1E70C4BD3F88030C3
:107A000003F00303022B03D0032B05D00023B5E7BB
:107A1000FEF7B8FD0B23B1E7FEF7E4FD0523ADE764
:107A2000002001A9FFF750FEA9E700BF0080005029
:107A300038B50546FFF7DAFC214B04465A68012A9F
:107A400004D120494A609A699207FCD10020FFF7CF
:107A50006FFF042803D130F0C8FE30F0CEFE1A4A82
:107A600024F04073954221D0184A954221D0184AFB
:107A7000D16811F0060FFBD190689360916803F410
:107A8000F81301F4F8118B4216D12846FEF75AFD7F
:107A90000020FFF74DFF042810D1FEF773FD0021F1
:107AA000FFF778FCBDE83840FFF7FABE43F00073FB
:107AB000DDE743F08073DAE79060E9E738BD00BFA7
:107AC00000C0015000E0015040420F0080841E00C1
:107AD0000000015070B504460020FFF729FF03287D
:107AE0007CD045F60E030221414AC2F88030414B5A
:107AF0009962012103F580539962936DD903FCD4F7
:107B0000D4E900131B0543EA0163E17B94F822509A
:107B10000B43217B94F8236043EA0143617B43EAF2
:107B20000133A17B43EA811313619169D4E9040312
:107B30001B0643EA806301F000410B43A17EE07E17
:107B40000B43217E43EA0143617E43EA01239361B3
:107B5000136AE26923F00D03002A0CBF00210821FB
:107B600043EA020343EA8003214A43EA0103136222
:107B700094F820304FEA431331D1906A94F82110E1
:107B800020F0330043EA0113034343F001039362FF
:107B9000194B916D33EA0101FBD10221154B99621A
:107BA000936D5B00FCD41069A36820F4700040EA78
:107BB000035010614FF000420E4B9A611DB9022232
:107BC00003F580539A6216B901220C4B9A6294F81D
:107BD00024301BB1064B0A4AC3F8802070BD916A5D
:107BE00021F0330131430B4343EA45039362EEE74F
:107BF00000C0005000D000500300014000E00050E1
:107C0000F1A7FFFF014B93F90000704715560020C4
:107C1000014B1880704700BFE0150020054B42095A
:107C200053F8223000F01F0023FA00F0C04300F0A8
:107C30000100704700E100E00A4A10B513690446EC
:107C400043F00403136102F03FFB30F003FE30BF4A
:107C500030F001FE02F04CFB1CB9BDE81040FEF70D
:107C600091BC10BD00ED00E0084A10B51369044650
:107C700043F00403136102F027FB30BF02F038FB2E
:107C80001CB9BDE81040FEF77DBC10BD00ED00E062
:107C9000034A0179D36E23F030030B43D366704758
:107CA00000400050072AF7B50D4614461F460FD86E
:107CB00003219600B14000FA06F21548019130F018
:107CC000CDFD05F0030201991248B24030F0C6FD27
:107CD000114B12499DF82000002F08BF19460123BF
:107CE00003FA04F40C600E4B0E49002808BF0B4643
:107CF0001C600D4B9DF82400C3F820441031A3F6FE
:107D0000DC33002808BF0B461C6003B0F0BD00BF89
:107D100000C4035008C4035010E4035010D40350AF
:107D200014D4035014E4035000E00350F8B50446A3
:107D30000D461F4616464AB101238B403021194A91
:107D400001FB0022FFB141F21001535004EB440348
:107D5000072D4FF00F014FEA031317D8A80006FABA
:107D600000F281401048184430F078FD56B90121E6
:107D700030230C4801FA05F503FB040077B141F20A
:107D80001003C550F8BD42F21001DEE7A5F108006E
:107D9000800006FA00F281400448E4E742F2100352
:107DA000EFE700BF00C0035004C003500CC00350F5
:107DB0004FF40012064BC3F88020BFF34F8FBFF380
:107DC0006F8F0022FF21034B5A6599625A607047FA
:107DD00000E100E000000450044A054B002918BFF0
:107DE0001346012202FA00F0186070474020045048
:107DF0004010045030B5047845788178C27801206D
:107E00000F4B41EA0541240658609C609961FF21AF
:107E100099620021996319644FF0004159654FF050
:107E2000FF314FF4001003F50053196505491301A4
:107E3000DBB2C1F8800181F81533086030BD00BFA6
:107E40000000045000E100E02DE9F04101250C465E
:107E5000C3B2DFF888E0D1F800809D408F7ACB7AFA
:107E600094F80DC0097BCEF850500EF5005E4EF828
:107E700020804FF0300E184E1B050EFB006043EAC9
:107E8000074343EA415322F00302C0F860C0C365D0
:107E9000026730F0D6FC736D2B437365237A13B100
:107EA000336C2B433364637A13B1B36B2B43B363EB
:107EB0002279A37943EA0243084A93616179E3791D
:107EC00043EA014306498B61034B55639D64BDE85A
:107ED000F04130F0BCBC00BF000004500020045052
:107EE0000010045010B50124C0B2844030F0A9FC49
:107EF000044B5A6D22EA04025A659C62BDE81040A8
:107F000030F0A5BC0000045010B50124C0B284407C
:107F100030F097FC074BDA6A224209D15B6B34EAF6
:107F200003030CBF0124002430F091FC204610BD57
:107F30000024F9E70000045041F67132034BDA6384
:107F4000012203F50053DA60704700BF00000350C0
:107F500041F671320121044BDA6303F50052D1601E
:107F60000022DA63704700BF00000350014BD3F8D2
:107F70009400704700400050CB784A7810B55B0100
:107F80000C7843EA82030A79234343EA02130C2262
:107F9000424302F1B0421363012C02BF8A78024BC4
:107FA00043F8202010BD00BFD080035008B54FF02B
:107FB000B0435A6802B960B15B680BB130F065FC40
:107FC0004FF0B04130B10120074B586030F05DFCFC
:107FD000C86008BD30F059FC0223CB6030F055FC7E
:107FE0000122024B5A60F4E70010005800200058AC
:107FF0004FF0B0435B6870B50BB130F046FC012127
:10800000104B4578596083780679002BC37814BFEC
:1080100002240024002B14BF042200224379DB0039
:1080200043EA06132B43234313434FF0B0429360BC
:10803000054B59600378002B14BF0B460223D36015
:1080400070BD00BF0020005800100058054B5B6950
:10805000C3F38512827003F03F021B0B4270037062
:10806000704700BF00C007500120034B9B680A33D4
:1080700003F01F03984070470080E00F0D4B9842BB
:1080800008D1A3F50033C3F88411C36D43F0800316
:10809000C3657047084B984204D1A3F51033C3F869
:1080A0009411F2E7054B984204BFA3F52033C3F8BF
:1080B000A411EAE70080055000C0055000000650FA
:1080C00070B5054616461C4619B90320FFF762FB3A
:1080D0000146402C1BD003D8DCB1202C1BD070BD36
:1080E000602CFCD1042303FB06F2560806EB411377
:1080F000B3FBF2F3094A203B02EAC303AA6822F069
:108100006002AA60AA681443AC60EB61E7E706234B
:10811000E9E71023E7E70823E5E700BFF8FF7F0062
:10812000012200F5805310B55A6040F6AA6341F26F
:1081300005024361002312498360C365C26000F5F4
:1081400000520361C361C36491640E498365884230
:1081500006D00D4CA04203D004F58044A0420BD1C0
:108160008842036506D0084B984203D003F580434C
:10817000984201D1002343650123536010BD00BF25
:10818000FFFF01000080055000C0055070B50D468E
:10819000FFF7C6FF012300F580567360AB7C0446F1
:1081A0001BB1836843F080438360EB7C1BB12046A6
:1081B000297DFFF763FF2A8A6B7B20461343EA89F8
:1081C0001343E3602B7BD5E90112FFF779FF6B7D49
:1081D0001BB1A36843F48033A360AB7D1BB1A368DC
:1081E00043F40043A360EB7D2A7E1B07120502F4D3
:1081F000E00203F0E0431343A3656A7E931E012B64
:10820000214B20D89C421AD003F580439C4218D0C1
:1082100003F580439C420CBF02234FF0FF3341F231
:10822000AC5102205B0103F1A04303F570335850B9
:10823000032A23D10423F3652B78636170BD0023E7
:10824000EDE70123EBE79C4214D0104B9C4213D086
:1082500003F580439C420CBF02234FF0FF3342F2F0
:10826000AC5102205B0103F1A04303F57033585079
:10827000012ADEE70023F2E70123F0E7042204F5F8
:108280000053DA65D8E700BF0080055000C00550F4
:1082900038B50446054D35F01AFE0FCC0FC594E8ED
:1082A0000F0085E80F00002038BD00BF482B0020DC
:1082B00047F6FF739A42F0B566D0022966D8344D6E
:1082C000CF0015F8313005EBC100012B847813D1B4
:1082D0000025C3781B1B9D4202D3E018C0B2F0BD3D
:1082E000591B4668A3EB510136F911609642D4BF81
:1082F0000D4601F1FF33EEE740680028EFD0B0F9FA
:108300000030934204DBB0F902309342B8BF134609
:1083100082883D44FF2A19BFC8214FF0280CB0F9CC
:108320000610B0F908C0A1EB03020CBF012600261D
:1083300092FBFCF26D78324412B2954201DD002AC4
:1083400001DA6A1E12B24FF47A7700EBC206F188A6
:10835000B668013213FB016112B221EAE1715C31AE
:108360009542B1FBF7F104DD00EBC206B6888E4200
:10837000EBD200EBC20232F8040C884228BF084658
:10838000A04238BF2046A9E7FF20A8E70020A6E7C3
:10839000482B00200229F0B553D82B4800EBC1042C
:1083A00010F83110636801290FD1E078A478904269
:1083B00094BFC4EB0001C4EB0201001BCAB28242AD
:1083C000C8BF002233F91200F0BD002B39D0A178CC
:1083D000914202D3B3F90200F6E7E178B3F9000065
:1083E0009142F1D999886478A1F1FF06013C71426C
:1083F00003F10405E4B2714103F10C071FFA82FC9A
:10840000CEB2B44216D805EBC1014FF47A756A4377
:10841000B1F902404968521A04EBD47102EB6102CF
:1084200092FBF4F29042CFDBB3F902009042CBDC36
:1084300010B2C9E737F831E04E1CE645E3D33146C8
:10844000DEE70248C0E700BF482B00200080FFFFA6
:1084500008B50448FFF71CFFBDE80840012035F0CF
:1084600059BD00BF502704007FB51422002101A888
:1084700039F04EFA044B01A94FF0FF30029335F06A
:1084800086FD07B05DF804FB006A18002DE9F04195
:108490008CB08846DDE912761D460446002847D098
:1084A000002945D0002F43D0002E41D013F00F03F8
:1084B0003ED120482049A360002A18BF0146E3614D
:1084C000C4E90013404609A930F079FB68BB204697
:1084D000099930F0F6F92946204630F0F2F969465C
:1084E000404630F00BFC00BB6946204630F0D5F921
:1084F000404603A930F00DFCB8B9204603A930F07E
:10850000CCF906970127204645F0005506A90797A4
:10851000089530F0C2F9204609A909960A970B95EB
:1085200030F0C5F9204630F0D4FA0CB0BDE8F08147
:108530002120FAE700010104000100047FB50E4686
:108540001D460446F0B102B9E3B90123019202933A
:1085500045F00053039300230B4AA360C4E90023B2
:10856000E361204601A930F098F93146204630F009
:10857000A8F92046294630F0A4F9204630F0A9FA9F
:1085800004B070BD2120FBE7000009430F4B984267
:1085900009D010D80E4B984205D020F48070A3F576
:1085A000806398420FD10B88B3F5105F0CBF002099
:1085B0006FF085007047074B9842F4D020F40070AC
:1085C000A3F58073EDE76FF0850070470010C004DD
:1085D000004440040012C0042DE9F04F93B09346CC
:1085E000DDE91E759846DDE91C2381468A46209EFA
:1085F00029B96FF08604204613B0BDE8F08FBBF1B7
:10860000000FF6D00FB9002DF3D10AB9002BF0D12D
:1086100016B9219B002BECD1229B002BE9D04946B7
:108620004046FFF7B3FF04460028E4D1014620226C
:1086300002A839F06DF9202221460AA839F068F91C
:1086400002A830F059FA00283DD15A465146484612
:108650000AAB30F0CCFB04460028CCD10A9830F0AD
:1086600082FB04460028C6D115B9229B1860C2E7D8
:10867000B74210D27B199E420DD2219B9D42B8D8A1
:108680002A463946304639F029F9174B984518D013
:108690006FF08504AFE7144B9845F9D1219B9D42BB
:1086A000A7D815F00F08A4D1CDE900762B46424695
:1086B0000AA902A8FFF7EAFE074638B9229B1D6007
:1086C00099E73746EDE76FF0920494E7414630466C
:1086D000219A39F01DF9229B012FC3F80080F2D1B5
:1086E0006FF08B0487E700BF004440042DE9F04F92
:1086F00093B08146DDE91C75934698468A461E9ED6
:1087000029B96FF08604204613B0BDE8F08F002A27
:10871000F7D00FB9002DF4D116B91F9B002BF0D163
:10872000209B002BEDD049464046FFF72FFF044623
:108730000028E8D10146202202A839F0E9F82022D9
:1087400021460AA839F0E4F802A830F0D5F900284B
:1087500049D15A46514648460AAB30F048FB0446D8
:108760000028D0D10A9830F0FEFA04460028CAD179
:1087700015B9209B1860C6E7B74210D27B199E42FC
:108780000DD21F9B9D42BCD82A463946304639F04F
:10879000A5F8184B98450BD06FF08504B3E7154B3F
:1087A0009845F9D11F9B9D4203D96FF08904AAE730
:1087B000374615F00F08A4D12B460122CDE90076EB
:1087C0000AA902A8FFF762FE209B1D60054600284B
:1087D00099D0414630461F9A39F09AF8209B012DD6
:1087E000C3F8008002D06FF092048CE76FF08B0426
:1087F00089E700BF0044400413B50024064A6846D8
:10880000536F43F00103536700948DF80440FFF762
:108810003FFA204602B010BD0040005008B50248A3
:10882000FFF706F9002008BD00B4C40430B58BB0D2
:108830006C46174D0FCD0FC40FCD0FC495E8030044
:1088400084E80300134BD3F84C21120318D4D3F857
:108850005041E4B28DF81940FFF7D4F9204480F379
:1088600008008DF818000C48FDF7A8FE6846FFF7D1
:1088700031F94FF4FA70FFF7CBF900200BB030BD9F
:10888000064B1C884FF6FF739C4208BF8C24E1E71F
:108890003C2804000080E00F00F049020001E00FD6
:1088A0006FF00402502110B50A480B4C12F0800FF3
:1088B000D3B21BBF03F00F03043BA3181B1802F134
:1088C00001020CBF83F8001319763D2AEED1002077
:1088D00010BD00BF00ED00E000E100E010B504466F
:1088E0002FF0A0FF024B1C602FF0A0FF002010BD56
:1088F000682B002010B52FF095FF034B1C682FF05C
:1089000095FF204610BD00BF682B002013B513460D
:108910000C4618B90192FFF7EDFF019B0146224674
:10892000044810F021FB0028D4BF3720002002B0FB
:1089300010BD00BFB58E030010B5002400F01EF876
:108940000348044B84604360FFF7C8FF204610BD16
:108950006C2B00205989000013B5064C2378009336
:10896000054B1B8830F0BFFA10B923780133237010
:1089700002B010BD16560020E215002008B5074BC6
:108980001A6842B9012208201A602FF09DFE04499E
:10899000044801F0EDFA002008BD00BF802B002044
:1089A000F4100020782B002030B51446054687B01F
:1089B000104630F0F7FA6369024683423CBFD4E9BF
:1089C00003315B181B1A7BB10F4928460391002124
:1089D000CDE90131012304940093D4E900132FF071
:1089E000B9FE002007B030BD0122627694F82D2038
:1089F000002AF6D084F835301321E36920469847E1
:108A00002046636A9847ECE7A98900002DE9F04702
:108A100088B004468846174699462FF012FF8246D2
:108A2000002F7AD0237E03F0FF02002B00F0A280FB
:108A3000204630F0B7FA6669B04205D1637ED4E9CA
:108A400003521544AD1B01E0F9D9851BBD4228BF77
:108A50003D462FF0F6FE94F82D300646002B6DD1E2
:108A60002A464046616938F02CFF63692F462B4443
:108A7000636121E0037803F0FD0111295BD1216BD3
:108A8000814205D1A3F111014B424B4184F83430AE
:108A9000013F6369216B01328B4203F1010308BF7F
:108AA0002363636195426069E4D1D4E90323216BB8
:108AB0001344994200D122630025D4E9032361695C
:108AC0001344994208BF6261207A6576FEF792FAF4
:108AD000204630F067FA6369834232D1257694F8F4
:108AE0002D30E568656103B125632046636A9847C8
:108AF000214B2A46039300230293236921680193A3
:108B00000123207A0093049463682FF023FE207AD7
:108B1000FEF790FA30462FF09AFE5046C9F80070E2
:108B20002FF095FED9F80030002B0CBF1B20002041
:108B300008B0BDE8F08708F8013BAAE72F460022FD
:108B4000B0E70123207A23760DF11E01FEF7DAFA51
:108B50009DF81E30002BDAD00DF11F01207AFEF7B0
:108B6000A9FA9DF81F100029D1D12246207AFFF7DB
:108B70001BFFCCE71746D0E7A9890000002808DBD7
:108B80000123420900F01F0003FA00F0014B43F8F3
:108B90002200704700E100E0002809DB01224309C0
:108BA00000F01F0002FA00F0024A603342F823008E
:108BB000704700BF00E100E070B504460568FFF7AC
:108BC00099FE844202D10020FFF788FE95F9360015
:108BD000FFF7E2FF95F93630002B0DDB01215A0932
:108BE00003F01F0301FA03F31849203241F8223041
:108BF000BFF34F8FBFF36F8F95F93700FFF7CCFFAF
:108C000095F93730002B0DDB01215A0903F01F03C2
:108C100001FA03F30D49203241F82230BFF34F8FA0
:108C2000BFF36F8F287AFEF725FA287AFEF788F9C6
:108C3000FEF764F900232846C4E90033C4E904338D
:108C4000A360AB6ABDE87040184700BF00E100E0D8
:108C50002DE9F0410C461546064686B0402200211B
:108C600020461F4638F054FE95E8030000232A6989
:108C70002376EB6884E80300C4E904232A7DE360DB
:108C800084F82C20AA7D2363012384F8343084F8EF
:108C900035300C9B84F82D2023620D9BE7616362C5
:108CA0000E9BA3622B7A84F836306B7A84F83730C7
:108CB0002D4B346073602D4BB3602D4B33612D4BC6
:108CC00073612D4BF360FEF761F938B12B4B98427D
:108CD00004D01024204606B0BDE8F081002104F144
:108CE0000800FEF7DBF807460028F2D14FF0010834
:108CF000234B3362234B84F83C80B361224BF361F6
:108D00009DF8403084F8390084F83B309DF83C30C1
:108D1000204684F83A30697D84F8388030F052F982
:108D200095F90900FFF738FF95F90900FFF726FFCD
:108D3000164B0494CDE902732369CDE9008363687F
:108D4000E2682168207A2FF005FD04460028C0D192
:108D500095F90800FFF720FF95F90800FFF70EFFCF
:108D60003046FFF7BBFDB5E7159003000D8A000004
:108D7000938F0300998F0300B98B0000038000F0EC
:108D8000698F0300C58F03009F8F0300A98900002E
:108D90002DE9F0414FF001081C46584B86B0029374
:108DA000574B0C9D0193574B174600930A46CDE94C
:108DB00003882946544BFFF74BFF0646002876D11F
:108DC000236804222B64237985F84430A17985F83F
:108DD0004610607985F84500237A85F84830E379B4
:108DE00085F84730A37A85F84A30637A85F84930A8
:108DF000237B85F84C30E37A85F84B304346FEF709
:108E000095FF43460222217AE079FEF78FFF3E70FC
:108E100039462068FFF7BAF91421A27B3B4B03EBDC
:108E20004210C0F8AC1594F806C061792E3203EBFD
:108E3000421341EA0C415960227AE37943EA024342
:108E4000C0F8BC3585F84D607B7E032B53D8DFE836
:108E500003F01F02324D0123002785F84D30002317
:108E60000222A17A607AFEF761FFA17A627AA37B7F
:108E700042EA014241F2B4515B0103F1A04303F520
:108E800070335A500422236803F58053DA65AFB972
:108E900063792A6C85F84530A379052185F8463039
:108EA000D36C206843F00403D3642FF031FD3046C7
:108EB00006B0BDE8F081022385F84D30002304227E
:108EC000217BE07AFEF732FF41F2AC520221A37B14
:108ED0005B0103F1A04303F570339950217BE27AE3
:108EE00042EA014241F2B8515A50D1E70323012727
:108EF00085F84D30B3E72326D9E700BF3F91030043
:108F000033910300C3910300B791030000C00350E5
:108F100007B501F055FC6A4601F0F4FC18B1522186
:108F2000034800F079FBDDE9000103B05DF804FBC4
:108F30006428040008B501F07FFB18B17A210248CB
:108F400000F06AFB002008BD6428040008B500F0AA
:108F5000C7FA0E4A536A43F470235362EFF308834F
:108F60004FF0CD310A4A043B93420BD20222094B07
:108F70001A6700F0EBFCFFF7DDFFBDE8084006488C
:108F8000FFF786B943F80419EEE700BF00ED00E0F3
:108F900000000020004000505027040007B50422C4
:108FA00000200DEB020134F06EFF042804D04FF4D2
:108FB000BF71044800F030FB019800F073FC03B06F
:108FC0005DF804FB6428040008B500239B6A1B0CB1
:108FD0001B0433B10B4A934203D043210A4800F0EB
:108FE0001BFB00239B6A13F4404F03D04621064825
:108FF00000F012FBFDF77EFC002814BF8620002045
:1090000008BD00BF0000E10FC6280400002300B522
:109010009B6A8FB09B69DB0303D400200FB05DF81F
:1090200004FB01A8FDF7EAFC059A002AF5D0916837
:109030000D4BB1F5803F28BF890A508834BFD980D5
:10904000D980118828BF40F01000198051685880DD
:109050009980D168044899601169D9605169127E7C
:1090600019611A75DAE700BFBC2D002008B500238E
:109070009B6A9B69DB0303D4B821094800F0CCFA52
:10908000084B4FF40E7208491868FDF7F5FC28B13B
:10909000BDE80840BD21024800F0BEBA08BD00BFCF
:1090A000C6280400D42D0020842B0020002108B500
:1090B0008B6A986910F480300BD00848FDF7FEFCED
:1090C00040F20123984205D040F20323C31A5842CC
:1090D000584108BD4FF6FF70FBE700BF842B00200E
:1090E00008B500239B6A9B69DB0306D50121044870
:1090F000FDF7A0FC08B9FDF7E7FA012008BD00BFA5
:10910000D42D0020082310B548400A0A0649C0B2F1
:1091100000F00104400804B14840013B13F0FF0394
:10912000F6D1504010BD00BF2083B8ED2DE9F047C7
:109130000025144C144FDFF85890DFF85880224671
:109140004946002057F8043BEEB22FF0B8FE2378D2
:10915000A2460134002BFAD19AF801307BB10B49B9
:1091600006F00306032E08BF414600202FF0A7FE9D
:109170009AF801300135002BE1D1BDE8F087414676
:10918000F3E700BF9C35040000100020D264040007
:1091900030290400EC21040040F605226A4B2DE939
:1091A000F0411B8893420ED8B3F5206F0DD840F2E2
:1091B0000252934218D040F20172934220D040F202
:1091C000015293420AD0BDE8F081A3F602235F4C1E
:1091D000032B1ED8DFE803F0376396B25C4900200A
:1091E000BDE8F0412FF06BBE00205A492FF067FE1A
:1091F000564B1A6C0020BDE8F04157492FF05FBE76
:10920000524A0020D2E92423BDE8F04153492FF00F
:1092100056BE002052492FF052FE94F868309E0747
:1092200003D500204F492FF04AFE94F86B305D06BD
:1092300003D500204C492FF042FE94F96B30002BEF
:10924000C1DA4A49CBE7002049492FF038FE94F8AB
:109250006430980704D00020226C3F492FF02FFE85
:1092600094F96430002B04DA0020226F41492FF07A
:1092700026FE00250126404FDFF80881626E06FABF
:1092800005F3134207D057F8252013781BB1414648
:1092900000202FF014FE0135082DEFD193E7374958
:1092A00000202FF00CFE2C490020226C2FF007FE2E
:1092B00094F86530590703D5002031492FF0FFFDA0
:1092C00094F96530002B04DA0020226F29492FF031
:1092D000F6FD0825284E2B4F636EEB40DA0707D5C5
:1092E00056F8252013781BB1394600202FF0E7FDF2
:1092F0000135102DF0D194F8640000287FF463AF9D
:1093000021496DE7214900202FF0D9FD0020226C72
:1093100011492FF0D4FD1025174E1A4F636EEB4004
:10932000DB0707D556F8252013781BB139460020F6
:109330002FF0C5FD01351A2DF0D144E70020144966
:109340002FF0BDFD226C55E7304D002000100020AD
:109350003A29040078290400A9290400C42904003A
:10936000E0290400F9290400342A0400682A0400D2
:10937000A52A0400CB2A040010340400F22A0400B9
:109380000A2B0400E92A0400512B0400822B04005C
:109390009C2B04002DE9F04F434C85B0636BD4F84F
:1093A0003CA05A0744BF0026B046D4F84CB05FBF7B
:1093B000D4F838A0D4F848B0D4F850803B4E54BF0D
:1093C000DFF81091DFF8109113F0080F384B394A8D
:1093D00018BF1A46B6EB08071FBF64237D0803FBBE
:1093E0000B55B5FBF7F50CBF3D46ADB24B463249C8
:1093F0000020CDE9016ACDF80080BFB22FF05FFDFB
:109400002B460020CDE900972C491FFA8BF22FF054
:1094100056FDB24501D8C24504D24A46002028492B
:109420002FF04DFDD4E9170318433AD00020254909
:109430002FF045FD00250126234FDFF8A080E26DC7
:1094400006FA05F3134207D057F8252013781BB10D
:10945000414600202FF033FD0135202DEFD10025AE
:109460000126194FDFF87480226E06FA05F31342C5
:1094700009D007EB8503D3F8802013781BB1414650
:1094800000202FF01CFD01351D2DEDD100200F49CE
:109490002FF015FD00200D4905B0BDE8F04F2FF06D
:1094A0000EBD0B49F4E700BF0010002000100020A3
:1094B000C32B0400CA2B0400D22B0400042C04008C
:1094C0003E2C04005D2C0400A8340400CE1F0400D0
:1094D0008D2C0400BE2B04003D660400FD410400F9
:1094E00010B5FEF743FD04462FF0C9F90022012113
:1094F00001FA02F3234018D0204B214933F81230EF
:10950000062B18D040F20722934211D14FF000529F
:109510004FF20F00548884420AD11088984207D134
:109520004CF23C335380088010BD0132102ADFD149
:10953000134A138012E04FF000534FF20F02588885
:10954000904218D11B88B3F5406F28BF4FF4C06319
:109550000B804CF23C324FF000535A80084B1A8873
:1095600040F201739A4201BF064B074AD2E900015B
:10957000C3E90001D8E74FF4C063E9E768360400A7
:10958000304D0020D82D002090100020014B18886D
:10959000704700BF304D0020014B1888000A70470B
:1095A000304D0020044B05481B881A0AB3F5406F64
:1095B00038BF00EB82007047304D00208836040031
:1095C000044B1888044B020A53F82230C0B203EB54
:1095D00080007047304D00207834040010B50446F8
:1095E0002FF027F94FF000534FF20F021C805A80E2
:1095F000BFF35F8FBFF34F8F0549064BCA6802F474
:10960000E0621343CB60BFF34F8F00BFFDE700BFA5
:1096100000ED00E00400FA0538B504460D4600F000
:10962000C7F92FF006F92B462246054900202FF0F6
:1096300046FC29462046BDE838402FF078BE00BFE2
:10964000A32C04006C4A2DE9F0416C4B55686C4C1E
:109650005D65516A99656B49D1F80002D865D1F80A
:109660000412586B1966916A10F0040F5966D16A9A
:109670004FF000009966116BD966516B1967D26B78
:10968000D8645A67D3E90E2108BF11465E4A914259
:109690001A655DD301F12000A04259D88869C5F34D
:1096A00008051864CE69062D5E6455D1574DA84251
:1096B00052D3574DA8424FD205884DF6426085429D
:1096C0004AD11868C3F890005868C3F8940040F273
:1096D0000170A242154604D22E680432B6F1CD3F85
:1096E000F7D00022C3E91E22C3E92022C3E92222C7
:1096F000641B434EDFF814C1DFF814E19C648E4212
:109700002DD8D3E91EC7D3E92065D3E922414FF014
:10971000000E013AD2B2FF2A3DD1BEF1000F05D0B2
:10972000C3E91EC7C3E92065C3E92241B3F8543039
:10973000C3F308030C2B3CD8022B52D9DA1E092A9A
:109740004FD8DFE802F0553241444E4E4E4E4E4B5C
:109750000021C3E910112C494FF42060B9E756F8F5
:10976000044D6445CBD37445C9D2E507C7D506255A
:10977000284F57F8048BA045C1D0013D15F0FF05D7
:10978000F7D10AB9052201E0013AD2B202F11E0571
:1097900043F82540B3E7E0464FF0010EBC4637469C
:1097A0002E4625460C464146B3E740F60220BDE86A
:1097B000F0813B2B15D1184B9B6913F0020F40F23F
:1097C000025318BF1846F2E740F60320EFE740F6D1
:1097D0000423B0F5206F08BF1846E8E740F60520DF
:1097E000E5E740F60722013B4B2B98BF1046DEE72A
:1097F00040F60120DBE700BF00ED00E00010002094
:109800000010002000E100E00000002034410000D2
:109810005A1C0400781000200080015A00F00CB897
:1098200000F00AB800F008B800F006B800F004B87C
:1098300000F002B800F000B872B61EF0080F09D0B0
:109840001EF0040F0DD0DFF850E0AEE8FF1F6FF000
:1098500002000CE0DFF840E0AEE8FF1F6FF00E0002
:1098600005E0DFF834E0AEE8FF1F6FF00600694660
:10987000EFF309828EE8070086460848084C8545C4
:1098800001D3A54501D384F30888FFF7DBFE84F3F9
:109890000888FFF7A3FE0000001000204000002011
:1098A0000010002082B2074B4AB1000C1A8008BF9A
:1098B0004FF6CE22044B14BF18801A8070474BF627
:1098C000EF62F2E7E4150020E61500200B4BB3F938
:1098D00000201888002AB8BF80F0620042001A8079
:1098E000074AB2F9001013880029BCBF83F48053E3
:1098F00083F00B035900118058407047E415002095
:10990000E615002008B501F0C5F960B10A4B034423
:10991000072B0DD8072B0BD8DFE803F004060A0845
:109920000A0A0A0CC22008BDC320FCE7C420FAE7DB
:10993000C520F8E7C120F6E7FF1FFF0F024B9A6929
:1099400003F500539A6170470080015A1FB50D243A
:1099500000212246684637F0DBFF01238DF80030F6
:109960000323104A8DF809408DF80A30D2F80032EE
:109970000D4C23F0070343F0010369462046C2F86B
:1099800000322EF0F9FF4FF400610223074A04F57C
:109990000050C2F884118361516004F58054E36182
:1099A00004B010BD008000500080015A00E100E0CA
:1099B00001482EF0D0BF00BF0080015A08B504480E
:1099C0002FF033F8BDE80840002101482EF0B4BF65
:1099D0000080015AF0B519B3002820DA2D23B0F128
:1099E000004F137000D04042012119E0801B8642D5
:1099F000ECB205F10105F9D914B9BCF1000F05D09D
:109A00004FF0010C4D1C30345454E9B2013B13F0BB
:109A1000FF0309D130305054481CC0B2F0BD0021C2
:109A200009234FF0000C024F002557F8046BDEE7C6
:109A3000C03604002DE9F04F002495B02146029471
:109A400080461646A1464422274603A802AC9B4600
:109A5000254637F05DFF0DF1480A317859B9641B8E
:109A6000E4B2224629460020C047002840F0AF80DB
:109A70003C44E0B2ACE025291AD0B9F1000F1BD16B
:109A8000204600F8011B04465445C0F0F580641BD5
:109A9000E4B2294622460020C0470146002840F093
:109AA0009680274448222846FFB237F031FFE2E093
:109AB000B9F1000F00D101363278782A06D8612A30
:109AC00007D8252A5DD039D8002AC8D04FF0000920
:109AD000DAE7A2F162011629F8D801A353F821F0C0
